:020000040000FA
:10000000021EA2022003FFFFFFFFFF02200BFFFFE3
:10001000FFFFFF022013FFFFFFFFFF02201BFFFF78
:10002000FFFFFF022023FFFFFFFFFF02202BFFFF48
:10003000FFFFFF022033FFFFFFFFFF02203BFFFF18
:10004000FFFFFF022043FFFFFFFFFF02204BFFFFE8
:10005000FFFFFF022053FFFFFFFFFF02205BFFFFB8
:10006000FFFFFF022063FFFFFFFFFF02206BFFFF88
:10007000FFFFFF022073FFFFFFFFFF02207BFFFF58
:10008000FFFFFF022083FFFFFFFFFF02208BFFFF28
:10009000FFFF70DFFFFF040000000002000000C847
:1000A00003000102327300000100000000000400A0
:1000B000FFFFFFFFFFFFFFFF0403090424035400B9
:1000C0006500780061007300200049006E00730035
:1000D0007400720075006D0065006E00740073009E
:1000E000240354004900200043004300320035003F
:1000F000330031002000550053004200200043002F
:100100004400430000035F005F003000580000001F
:1001100000000000000000000000000000000000DF
:10012000000000000000000000000000000030316E
:1001300032333435363738394142434445468C1BD7
:10014000E11BE11BE11BE11BE91B74F8121B26906C
:1001500003D4E0601590030274FEF0900304744D24
:10016000F0A37405F07A011206857F01021CD77492
:10017000F8121B2674FF121E207E00801F85188235
:10018000851983E064FE70069003877401F085187A
:1001900082851983E0F8900384E068F0790185187E
:1001A00082851983AA82AB83121067E97003020269
:1001B00077E064EF70027E07E0C0E0900387E0F82C
:1001C000900385E0FAE82AF8E434001206D4D0E07F
:1001D000F0900387E060A614600E14602A14603A61
:1001E00014605014606680A6900384E4F085188241
:1001F000851983E0900386F0C394809003874003C1
:10020000E4808A74028086851882851983E09003D1
:1002100082F0900387740302018D8518828519830B
:10022000E0900383F0900386E060199003877404E4
:1002300002018D900385E004F0F8900386E0686089
:100240000302018E900387740502018D900385E4FB
:10025000F0900387F0900384E0F885188285198375
:10026000E068600302018E900382E0644D60030247
:10027000018E1203C88002EEF97401121DBD020145
:100280006A74F7121B2674FB121E20EAFEEBFF7540
:1002900008047509007808121E3A7402121ECDACCB
:1002A00082AD837A907B0079041218427402121D89
:1002B000BD85188212067D121ECDE0687003A3E092
:1002C000697012851882851983E0F47003A3E0F445
:1002D00060030203A37404121ECDAA82AB8312062C
:1002E000E08A088B09A808A9097402121ECDE8F05B
:1002F000A3E9F07404121ECDE06008790112014AEE
:100300000203BC851882851983E0687003A3E06945
:100310006003020396851882851983E0F47003A3B5
:10032000E0F470197402121ECD7410F0A37420F062
:100330008518828519837410F0A37420F075080164
:100340007509007808121E3A7402121ECDAC82ADF7
:10035000837A247B081218C77402121DBD75080425
:100360007808121E3A7402121ECDAC82AD837A90C8
:100370007B0079041218427402121DBD8518821286
:10038000067D121ECDE0687003A3E0697004790257
:10039000800679048002790312014A8E828F837469
:1003A0001E80058E828F83E4F0120677121ECDE048
:1003B000687003A3E0697004790180027900740514
:1003C000121DBD7F02021CD774F1121B2674F81295
:1003D0001E20900307E0FA900306E0FBEAF8E4C869
:1003E000F9EB2400FEE93408FF750A018809750B52
:1003F000068E0C8F0D7409780C121EB1E50CF508F1
:10040000EEF50CEF5401F50D900383E014605C14DD
:10041000700302049A1470030204DF14601024FEB7
:1004200070030205A6147003020656020666750BD9
:1004300003794E1212DC900307E4F0A3F0A3F0A3BB
:10044000F0A37402F0A37440120670A3F0A3F0A30B
:100450007408120670750A0EAA0AA909120685A95F
:100460000B7408121DBD7F08021CD7750B04794E52
:100470001212DCEE450D7005A90812192D750C102D
:10048000750D00780C121E3A7C087D03EEFAEFFB26
:100490001218C77402121DBD80BE750B05E508C396
:1004A0009479400575090180AF750E40750F00788D
:1004B0000E121E3A7C097D037402780C121E71AA7A
:1004C0000CAB0DA9081218427402121DBD9003074F
:1004D000E0A3F0900306E0A3F0750A430204587508
:1004E0000C04750D00780C121E3A7402121ECDAC6D
:1004F00082AD837A907B0079041218427402121D37
:10050000BD7402121ECDE0F8A3E0F98518828519AA
:1005100083E0687003A3E069851882851983700BF6
:10052000E0F47003A3E0F4705F8009E0F47003A3CB
:10053000E0F4700D8518828519837410F0A374207F
:10054000F0120677121ECDE8F0A3E9F0750C0178E1
:100550000C121E3A7402121ECDAC82AD837A247B3B
:10056000081218C77402121DBD750C04780C121EF7
:100570003A7402121ECDAC82AD837A907B0079046E
:100580001218427402121DBD120677121ECDE068C9
:100590007003A3E0697006750B01020458750B0225
:1005A0007509070204589003D5E0600764026003F0
:1005B000020458EAFF7A017900120685E06003021E
:1005C000064A80031210F01210EDE970F77404125D
:1005D0001ECD12066B7404121ECD7808121E938570
:1005E000080C85090D850A0E850B0F9003C0780C49
:1005F000121E4B7404121ECD780C121E84E50845A1
:1006000009450A450B70CE8EC2E5C554E04FF5C5CD
:100610007404121ECD12066B7404121ECD780812DB
:100620001E9385080C85090D850A0E850B0F900316
:10063000C0780C121E4B7404121ECD780C121E844E
:10064000E5084509450A450B70CE7A017900120686
:10065000857908020461EB9003D4F070030204581A
:10066000750B090204587906020461E4F0A37426AC
:10067000F0A3E4F0A3F022851882851983E0F8A3A3
:10068000E0F974022274F6121B26EAFE900305E0DC
:10069000D2E7F0E9A3F0EE900303F08E0A74042E83
:1006A000FE7A028004E0620A0AEAF83395E0120654
:1006B000D48E08C3E89508E99400A2D265D03340EF
:1006C000E4E50AF074012AF97A027B031210A77F8D
:1006D00003021CD7F9740228F582740339F58322CA
:1006E00074E9121B267582007583FE121D848A161A
:1006F0008B177514007515008A828B83E4F09003C4
:10070000D5E07006D2AAD2AF8004640270057900E9
:1007100012014A750C00750D20750E00750F0090C2
:1007200003D5E06004640270151210F012016FE945
:10073000F87409686003020823790012014AE06432
:10074000027007A29240030207FD750800750902B6
:100750007808121E3A7402121ECDAC82AD83850C4D
:1007600008850D09AA08E5095407FB850E0A850FBF
:100770000B740B7808121DF1A908121842740212AA
:100780001DBD7E007F009003C8C0828E10EFF51162
:100790003395E0F512F513850C08850D09850E0AD1
:1007A000850F0B78087910121E5E9003C47808122A
:1007B0001E4B758303D0827808121D65501D851865
:1007C00082851983E5822EF582E5833FF583E0F982
:1007D000AA14AB151208448A148B15EE24010EEFEF
:1007E0003400FFC39402409E9003CC780C121E4B41
:1007F0009003D0780C121D65400302071F7900AAF0
:1008000014AB1512084479001208449003D5E07027
:1008100004C2AFC2AA758200758302121D847F10C4
:10082000021CD7E8700302073E74066870030207D3
:100830003E740768700302073E851682851783742D
:1008400001F080B9C008C0097C088A088B09740FC0
:100850007808121EB1EAC333FAEB33FBE9A2E75082
:100860000474014AFAE508A2E0500874216AFA7497
:10087000106BFBE9C333F91CEC70CFD009D0082210
:1008800074F7121B26120EA8600302095EA3E0F89B
:10089000A3E0600302095EA3E064027002A3E060CB
:1008A0000302095E9003B6E02480600914604F14CF
:1008B000605C02095EE8600302095E9003B0E060DC
:1008C000047801800278009003BEE8F0A3E4F09081
:1008D00003AFE0600A9003BEE04402F0A3E4F090AE
:1008E00003A4E0640460149003B174BEF0A3740325
:1008F000F0A3E4F0A37402120F0AF0020F8A90032F
:100900009DE0640470589003BEE4F0A380D0E854E6
:100910007FF50890039DE064047043E508C39406E6
:10092000503C749D2508F58274033400F583E85427
:10093000806018A3A3A3A3A3A3A3E0640370047817
:1009400001800278009003BEE88090E582240CF5D7
:1009500082E5833400F583E0640370E780E190036F
:10096000A47404809574F7121B26E9FE9003BC1250
:100970000EAB6003020A4B90039DE06404600B9091
:1009800003BA120EAB6003020A4B9003B6E0541F89
:100990006009146030146020020A4B9003B8E064D0
:1009A000017022EE9003AFF06004790580027906B1
:1009B0007A00121B24020A519003BAE0547FFA9085
:1009C00003B8E060057900020A53EAC39406507B3D
:1009D000EA90620EF08A08749D2508F874033400CA
:1009E000F99003BAE05480602CEE60047410800229
:1009F0007440906211F0EE600474038001E4888218
:100A00008983A3A3A3A3A3A3A3F0EE600479088022
:100A1000317907802DEE600474208002748090622A
:100A200014F0EE600474038001E4C0E0E8240CF5E7
:100A300082E93400F583D0E0F0EE6004790A8002A8
:100A40007909121B2490620EE480059003A47404BB
:100A5000F07901020F8A7900120965E97003121B0F
:100A600013227901120965E97003121B2222C08248
:100A7000C0839003BA120EAB7015A3120EAB700FA9
:100A80009003B8120C4C5480FAE9FBEA4B600790D3
:100A900003A47404801AE8906200F090039D60093A
:100AA000E06402700C74038007E064037003740256
:100AB000F0D083D0822274F3121B269003B8E0FAA0
:100AC000A3E014600814601014603B805912168F64
:100AD000120C29A37B80804379001216B1120C29D5
:100AE0007B80E92402F9EA3400FA121DD7FC1919B7
:100AF000E0FAA3E92403F9EA3400FA121DD7F9EC6D
:100B0000A3F0A3E9801CEAF912171F9003B1EAF0E1
:100B1000A3EBF0A3E4120C38A37B00121DD7A3F0C3
:100B2000A3E4F0020BE39003B1E4F0A3F0A3F0F52B
:100B30000B900474E0FAA3E0FB020BBE750900748D
:100B4000037808121E71EA2508F8EB3509F99003BD
:100B5000B8120C42E493C0E0EFFCD0E06C705DA3EF
:100B6000E4936E70579003BA120C42A3A3E493C0AF
:100B7000E0EFFCD0E06C704488828983A3A3A3E4F7
:100B8000936E703888828983A3A3A3A3E493F508A6
:100B9000740193F5099003B1E508F0A3E509F0A30A
:100BA0007480F088828983A3A3A3A3A3A3E493F80A
:100BB000740193F99003B4E8F0A3E9F0050B850BF9
:100BC00008900476120C4CC39AF50CE99BF50D7451
:100BD00003780C121EB1C3E508950CE4950D500383
:100BE000020B3C9003B1E0FCA3E0FDA3E0FEEC4D62
:100BF0004E9003A4700474048029E064046025907E
:100C000003BCE0FAA3E0FB9003B4E0F8A3E0F9C36F
:100C1000EA98EB9950089003B4EAF0A3EBF0900344
:100C2000A47401F07F06021CD79003B1EAF0A3EB95
:100C3000F0A37480120C3822F09003B1E0F9A3E025
:100C4000FA22E0FEA3E0FF8882898322E0F8A3E095
:100C5000F9E82274EE121B26EA2404F8EB3400F9BA
:100C6000880889098882F583E493602590047812C6
:100C70000C4CFEE98007EE2404FEEF3400FF8E8268
:100C80008F83E493F8740193F9EA687002EB69705A
:100C9000E5750C0080409062147490F07410120D91
:100CA000A97003750D408E828F83A3A3A3E493558F
:100CB000106006E50DD2E0F50DE50D906215F0EA45
:100CC000906213F0EC240CF582ED3400F583E4F02F
:100CD00090620EF0050C850882850983E493F8E59F
:100CE0000CC3984003020DA47A0079051216228ADB
:100CF0000E8B0FEA450F60DCEA2402F8EB3400F9B2
:100D0000880A890B8882F583E493540FF512906268
:100D10000EF0750D008A828B83A3A3A3A3E4932412
:100D200007F510A3E4933400F51174037810121E34
:100D3000B1AA10851210749D2510F874033400F9BF
:100D4000E8FCE9FD751001751100E5127810121E1E
:100D500071E50E2403F8EB3400F9850A82850B83D4
:100D6000E493A2E74003020C969062117448F07479
:100D700008120DA97003750D408E828F83A3A3E422
:100D80009355106006E50DD2E0F50DE50D90621269
:100D9000F0EA906210F08C828D83A3A3A3A3A3A397
:100DA000A3020CCE7F0B021CD7F088828983E493C8
:100DB0005403640122C082C083120EA87010A312D3
:100DC0000EAB700AA3E064017002A3E06007900319
:100DD000A47404800C9003B1749EF0A37403120FEA
:100DE00000F0020AB174F4121B2690039DE0640225
:100DF00060149003BA120EAB700CA3120EAB700607
:100E00009003B9E060099003A47404F0020EA37A81
:100E1000007901121B249003B8E060727A00F91285
:100E200016B18A088B09EA4509605B90039D74043A
:100E3000F09003B8E090039EF0750C008508828561
:100E40000983A3A3A3A3E493F8E50CC398504D85AD
:100E50000C0A749F250AF874033400F9E8FEE9FFD0
:100E60008E828F83E4F07A0079041216228A828BB4
:100E700083A3A3A3E493F88E828F83E06870E712C4
:100E80000C53050C80B69003A47404F0800E9003FC
:100E90009EF090039D7403F0F91215807A00790298
:100EA000121B247F05021CD79003B8E0F8A3E0F9D9
:100EB000E8492274F6121B2690039DE06404701921
:100EC0009003B6E064817011120EA8700C9003BC00
:100ED000E064017002A3E060079003A47404801A28
:100EE0009003BAE0249FF508A3E03403F5099003CA
:100EF000B1E508F0A3E509120F00F07F03021CD74B
:100F0000F0A3E4F0A304120F0A22F0A3E4F090038C
:100F1000A4042274F7121B2690039DE064047064FD
:100F20009003B6E06401705C9003BC120EAB705489
:100F30009003B8E0FB9003BAE0FA90039EE0F91248
:100F400016E98A088B09AE08AF09EE4F60369003A8
:100F5000BAE0FA7903121B249003B8E0C0E09003D2
:100F6000BAE0249FF8A3E03403F988828983D0E0B3
:100F7000F0EEFAEFFB120C539003BAE0FA79041288
:100F80001B2480069003A47404F07F02021CD7C0C7
:100F900082C0838003121989A2E840F9A823E8548B
:100FA0000460097823E654FBF612132CA823E854B6
:100FB0001060097823E654EFF612134AA823E8A23A
:100FC000E05005782354FCF690620EE0FA7404F0C9
:100FD000906214E0A2E05042E5A8F8C2AF90621619
:100FE000E0F9A3E0E9FBE8A2E792AF801F90622856
:100FF000E0C0E0900391E0F8747C28F58274053439
:1010000000F583D0E0F0900391E004F0EBFC74FF76
:101010002C1B0470D8906214E4F0EA90620EF0E0A9
:10102000FD7404F0906211E0A2E04031900393E07F
:10103000F8900392E06860257A409003921210DFE6
:10104000E0906228F0900392E004F008900393E0AF
:101050006860041AEA70E39062117401F0ED906226
:101060000EF0D083D0822274F8121B26E9FE79009C
:10107000801F900390E0FC747C2CF5827405340092
:10108000F583E08A828B83F0900390E0041210D401
:1010900009900390E0F8900391E0686005E9C39E31
:1010A00040D07F01021CD7C082C083E9FC80188A2F
:1010B000828B83E0C0E09003931210DFD0E0121027
:1010C000D4900393E004F0ECF874FF281C0470DF64
:1010D0007901808EF08A828B83A3AA82AB8322E07F
:1010E000F8747C28F58274043400F5832279002298
:1010F000020F8F74FB121E20794A1212DCE59D54F8
:101100001864107003022000121258C280D2918518
:101110001882851983AA82AB83120281E9700302C7
:10112000120BC291E0C3943C500EE0F8743CC3989B
:10113000F50895E0F5098006750800750900E4F5E5
:101140000AF50B9003D6780C121E937808790C12CE
:101150001A2A790612014A120F8F12016FE9F874E8
:1011600009687007790612014A80277407686016BB
:10117000A2935012E86008740668600302120BA282
:1011800092400F02120B750800750900750A007570
:101190000B0085080C85090D850A0E850B0F900341
:1011A000C07808121E4BE50C450D450E450F70A783
:1011B000D280790712014A7E007F007401121ECD91
:1011C000E4F0A37426F0A3E4F0A3F07401121ECDA2
:1011D0007808121E9385080C85090D850A0E850B6B
:1011E0000F9003C0780C121E4B7401121ECD780CA8
:1011F000121E84E5084509450A450B70CEA292509F
:10120000FCA29350F81212D7022000D280D291791A
:101210004E1212DC750800750900750A00750B0086
:10122000790512014A120F8F12016FE9F8740968EB
:1012300060EE74016870EE120F8F9003DA78081276
:101240001E4B9003DE7808121D6550EB1212D70278
:1012500020007405121DBD2274F8121B2653BEFB1C
:10126000E59DA2E650FA0078F8790100E824FF181D
:10127000E934FFF9E84970F375C6807480659E70A3
:10128000FA43BE049062707408F01212CC53F4FE5C
:10129000C29043FE017403F5D575D488900394E49D
:1012A000F0A374C2F0A37401F0A3E4F0A3F0A3F0E0
:1012B000A37408F01212F27AFF7BFF12194453F460
:1012C000FED29043FE011212CC0210A2D28043FD46
:1012D00001C29143FE0222D280C29122781075B6DB
:1012E0000FE5B4A2E750FAE5BBC39940F118E870E6
:1012F000ED22C082C0837A0079011216B18A828BF6
:1013000083A3A3A3A3A3A3A3E493A2E69003B05053
:101310000474018001E4F09003AFE4F090620F7474
:1013200003F0E0A2E750FBD083D08222C082C083CA
:1013300090039D7402F0A3E4F09003A4F0790312EB
:10134000158075210075220080DD74F6121B269031
:10135000620EE0FEE4F0906211E0FFA2E4501D7422
:1013600080F09003A47407F0E521452260098521EF
:1013700082852283121EDF9003A4E4F0EFA2E250E4
:101380000B906211E4F09003A4F080629003A4E05B
:10139000F87402687041906216E0FF9003B1121D6C
:1013A00017EFF97A207B621215B87403121DBD8FF6
:1013B000089003B4121555121560E0F8A3E0F9E89F
:1013C000496004744080027448906211F0E84960FA
:1013D0000302154B02152774066870098521828562
:1013E0002283121EDF9003A4E060030214D7EFA251
:1013F000E0400302154B7508B6750903750A0078BD
:1014000008121E3679087A207B621215B87403120E
:101410001DBD7521007522009003B6E054E0601DEB
:1014200024E070030214B324E0607224C0604824F6
:10143000E070030214BE24E0606E0214C9A3E0143D
:10144000602624FE601D24FE600A24FC601F24FE2A
:1014500060208075120A6E9003A4E06404707274B8
:10146000608070120A6280EF120A5680EA120DE55F
:1014700080E5120F1380E0A3E0600E24FA600F24D1
:10148000FE601024FE6011804012088080C9120A9C
:10149000B680C4120DB580BF120EB380BA75210F8D
:1014A00075221B121B0F80AF75211175221B121B99
:1014B0001180A47521AA75221A121AAA8099752181
:1014C000DA75221A121ADA808E9003A47404F0805E
:1014D0008E7440906211F09003A4E0F8740168707B
:1014E0005C7F029003B4E0F8A3E0F9C3E89420E93C
:1014F00094005007E8F50A7F0A8003750A209003DC
:10150000B1121D17A90A7A207B621215DD7403122D
:101510001DBD850A08121560121555EF906211F075
:10152000E50AC394205024E52145226009852182E3
:10153000852283121EDF9003A4E4F0800E740568F8
:101540007009852182852283121EDFEE90620EF0E3
:101550007F03021CD7C3E09508F0A3E09400F022BB
:101560009003B1E0F9A3E0FAA3E0FBE92508F9EA6A
:101570003400FA9003B1E9F0A3EAF0A3EBF0A32260
:1015800074F7121B267800880874A52508F5827464
:10159000031215AC40F17800880874AA2508F5827A
:1015A00074031215AC40F17F02021CD73400F5839E
:1015B000E9F008E8C394052274F6121B26EAFCEB56
:1015C000FDE9F8740A121ECD12160D600D8C828D85
:1015D00083E0121E0A12160270F302155074F612FE
:1015E0001B26EAFCEBFDE9F8740A121ECD12160D5B
:1015F000600D121DD78C828D83F012160270F302DB
:101600001550E9240109EA3400FA18E822E0F50847
:10161000A3E0F509A3E0A908AA09FBE822D083D03A
:101620008222C082C083E9FCEAFD7A007B0080034D
:1016300012166D90039BE0F8A3E0F9900472E06845
:101640007003A3E069602490039CE0F5838882A383
:10165000E493F8EC68700D90039BE0FAA3E0FB12B2
:10166000166D8007ED6870C8ED60C580B090039B73
:10167000E0F8A3E0F5838882E493F890039BE028E8
:10168000F8A3E03400F990039BE8F0A3E9F022C04E
:1016900082C0831216A07A00790112162202161D4A
:1016A000900470E0F8A3E0F990039BE8F0A3E9F060
:1016B0002274F7121B26E9FEEAFF1216A07A0079BF
:1016C00002121622EA4B601CEE60108A828B83A302
:1016D000A3A3A3A3E4936E70E48009EFF874FF283A
:1016E0001F0470D97F02021CD774F5121B26EAFF73
:1016F0008B087A001216B17A027904121622EA4B8C
:1017000060188A828B83A3A3E4936F70EA8A828B2A
:1017100083A3A3A3E493650870DD7F04021CD77440
:10172000F7121B2674F0121E20E97A007B00600C71
:1017300014601014601414601802182A7AEA7B03EB
:1017400002182A7AEE7B0302182A7A127B04021806
:101750002A900436E060030218267408121ECDACED
:1017600082AD837583037582E27408121D44750887
:1017700008F5097808121E3A7402121ECDAC82AD2B
:10178000837AE87B07797F1218427402121DBD78B4
:1017900008121E3A740A121ECDAC82AD8374021276
:1017A0001ECDAA82AB83121C3F7402121DBD8B0991
:1017B000EA4509701D7509007808121E3A7C0C7DF7
:1017C000787402121ECDAA82AB83121C917402128D
:1017D0001DBD7C287D008D08851882851983E582D2
:1017E0002508F582E5833400F583E0FF8C08743624
:1017F0002508F874043400F9EF12183288828983BE
:10180000F0EFC4121832C0E0E824FEF582E934FF9C
:10181000F583D0E0F00D74FC2CFCEDC3940840B6C9
:10182000900436742AF07A367B047410121DBD02BF
:1018300016E4540FFA74602AF58274043400F583B8
:10184000E02274F5121B268908740F5508F50A75F5
:101850000B00740B780A121E71EA2400F8EB348036
:10186000F9E82400E9350BF9E5C7F509A2AFE4333F
:10187000F50AC2AFE508C4540FFAE5C754F84AF5B3
:10188000C7740B121ECDE0FAA3E0FB801C8882898E
:1018900083E08C828D83F088828983A3A882A983C8
:1018A0008C828D83A3AC82AD83EAFEEBFFEE24FF36
:1018B0001AEF34FFFBEE4F70D48509C7E50AA2E0AA
:1018C00092AF7F04021CD774F7121B26ED90038899
:1018D000F0ECA3F0A37462F0A37473F0A3E0541FC0
:1018E000F07409121ECDE0F508A3E0F509E5083310
:1018F0003354FC90038DF074067808121EB1E5088D
:1019000090038CF090038E7412F0A37442F075D1A2
:10191000FE75D601EA906271F0EBA3F0906270E080
:10192000D2E1F0E0A2E740FB7F02021CD7C082C0F8
:1019300083E9C333906272F0906270E0D2E0F0D03D
:1019400083D0822274F7121B26752300752400753C
:1019500025008A268B27EA90620BF08A088B09748F
:10196000047808121EB1E508906207F08A088B0916
:1019700074097808121EB1E508543E906209F075AA
:101980008B00C2E87F02021CD774F7121B26E59D6C
:10199000A2E650FA906206E0FAA2E25035A826E8E4
:1019A00090620BF0F50885270974047808121EB1BF
:1019B000E508906207F085260885270974097808EC
:1019C000121EB1E508543E906209F0906201E0D227
:1019D000E0F07823EA46F6906202E0F50875090027
:1019E00074047808121E717823E50846F608E509A4
:1019F00046F6906204E0F50875090074097808124B
:101A00001E717824E50946F6EAA2E0500375250127
:101A100074065A6003752500E58BA2E55006758BA8
:101A2000DF752500121B2502197F080808EAC0E0AF
:101A3000EBC0E086F0E7A4FA180986F0E7A42AFADA
:101A4000180986F0E7A42AFA180986F0E7A42AFA0A
:101A50001986F0E7A4FBE5F02AFA190886F0E7A456
:101A60002BFBE5F03AFA190886F0E7A42BFBE5F02A
:101A70003AFA18180986F0E7A4C5F02BFBE43AFA05
:101A80001908E7C5F0C6A426F6E5F03BFBE43AFAF0
:101A90001886F0E7A4F6E5F00826F6E43B08F6E43D
:101AA0003A08F6D0E0FBD0E0FA22C082C08390036F
:101AB000B7E0F874226870089003A4E0701A8011EF
:101AC0007420689003A4700DE0700D121B01900348
:101AD000A4740280027404F08043C082C083900327
:101AE000B7E064219003A47013E07013121B01A3EC
:101AF0007407F0A3E4F09003A40480027404F0805F
:101B00001C9003B17494F0A37403F0A3E4F022805A
:101B1000028000C082C0839003A47404F0D083D0FC
:101B2000822280EF22222518C582C0E0E51934FF09
:101B3000C583C0E0E518C3958224F910AF088583FA
:101B4000198582188008858319858218D2AFCEF056
:101B5000A3E520F0A37808E608F0A3DEFAEFF0A3EF
:101B6000E58124FBF8E608F0A3E608F0A30808E600
:101B700008F0A3E608F0A315811581D0E0FED0E0BF
:101B8000F815811581E8C0E0EEC0E02212010002E4
:101B9000020000205104A8160900010203010902F5
:101BA0004300020100801909040000010202010043
:101BB0000524001001042402020524060001052466
:101BC0000100010705820340004009040100020AE8
:101BD00000000007058402400000070504024000E1
:101BE00000A71B0000CA1B0000121EDCB900030284
:101BF0001C39E479217807B800028004F709D8FC81
:101C0000E490030278BF79018002F0A3D8FCD9FAEE
:101C10009003C0AA82AB8390008E78BD79018015B5
:101C2000E493A3AC82AD838A828B83F0A3AA82ABB8
:101C3000838C828D83D8E9D9E71210F3121ED774F2
:101C4000F5121B26740B121ECDE0F8A3E08015A33D
:101C5000AA82AB838C828D83A3AC82AD83E824FF00
:101C600018E934FFF9E849601F8C828D83E0F5089C
:101C70008A828B83E0F50AE508650A60D2E50AC32B
:101C80009508FA95E0FB80047A007B007F04021C33
:101C9000D774F7121B26EAF8EBF97409121ECDE08F
:101CA000FEA3E0FF80188C828D83E088828983F018
:101CB000A3A882A9838C828D83A3AC82AD838E0876
:101CC0008F09E50824FF1EE50934FFFFE5084509F3
:101CD00070D47F02021CD7851983851882E0A3FE89
:101CE000E0A3F5207808E0A3F608DFFAE0A3FFE020
:101CF000A3C0E0E0A3C0E0E0A3C0E0E0A3C0E01028
:101D0000AF08858218858319800885821885831914
:101D1000D2AFD083D0822274038000CCC0E0EDC06B
:101D2000E0E518C39CCCAD1950011D10AF068C180E
:101D30008D1980068C188D19D2AF121D44D0E0FD8C
:101D4000D0E0FC22CAC0E0E0A3C582CCC582C58336
:101D5000CDC583F0A3C582CCC582C583CDC583DA4A
:101D6000E6D0E0CA22C008C3E096F50808A3E096D2
:101D7000420808A3E096420808A3E09645087001CF
:101D8000D3D00822C5822518C582C583351910AF66
:101D900007F5198582188007F519858218D2AFC515
:101DA00083222518F58210AF08F518400215198016
:101DB00008F51840021519D2AF85198322C0D02525
:101DC0001810AF08F518500205198008F5185002D0
:101DD0000519D2AFD0D022BB0102E722C082C08356
:101DE00089828A83BB0003E08002E493D083D0829F
:101DF000226016080808C6C313C618C613C618C63C
:101E000013C618C613C6D5E0EA22BB000EC082C0B6
:101E1000838A838982F0D083D08222BB0101F7229A
:101E2000251810AF08F518400215198008F518405C
:101E3000021519D2AF227403800474028000C0E03E
:101E4000F404121DA2D0E0121EC022E026F608A360
:101E5000E036F608A3E036F608A3E036F622E627D9
:101E6000F60809E637F60809E637F60809E637F610
:101E700022700422600D18C6C333C608C633C6D507
:101E8000E0F41822E6F008A3E6F008A3E6F008A3C1
:101E9000E6F022E0F608A3E0F608A3E0F608A3E0E7
:101EA000F62275D00075813F751802751903021B63
:101EB000E9600C08C6C313C618C613C6D5E0F422E1
:101EC000CAC0E0E6F0A308DAFAD0E0FA222518F555
:101ED00082E43519F5832200000080FB790122E4B9
:101EE00073FFFFFFFFFFFFFFFFFFFFFFFFFFFFFF8E
:101EF000FFFFFFFFFFFFFFFFFFFFFFFFFFFFFFFFF2
:101F0000FFFFFFFFFFFFFFFFFFFFFFFFFFFFFFFFE1
:101F1000FFFFFFFFFFFFFFFFFFFFFFFFFFFFFFFFD1
:101F2000FFFFFFFFFFFFFFFFFFFFFFFFFFFFFFFFC1
:101F3000FFFFFFFFFFFFFFFFFFFFFFFFFFFFFFFFB1
:101F4000FFFFFFFFFFFFFFFFFFFFFFFFFFFFFFFFA1
:101F5000FFFFFFFFFFFFFFFFFFFFFFFFFFFFFFFF91
:101F6000FFFFFFFFFFFFFFFFFFFFFFFFFFFFFFFF81
:101F7000FFFFFFFFFFFFFFFFFFFFFFFFFFFFFFFF71
:101F8000FFFFFFFFFFFFFFFFFFFFFFFFFFFFFFFF61
:101F9000FFFFFFFFFFFFFFFFFFFFFFFFFFFFFFFF51
:101FA000FFFFFFFFFFFFFFFFFFFFFFFFFFFFFFFF41
:101FB000FFFFFFFFFFFFFFFFFFFFFFFFFFFFFFFF31
:101FC000FFFFFFFFFFFFFFFFFFFFFFFFFFFFFFFF21
:101FD000FFFFFFFFFFFFFFFFFFFFFFFFFFFFFFFF11
:101FE000FFFFFFFFFFFFFFFFFFFFFFFFFFFFFFFF01
:101FF000FFFFFFFFFFFFFFFFFFFFFFFFFFFFFFFFF1
:020000040003F7
:01FFF000F020
:020000040000FA
:10200000022C6302222FFFFFFFFFFFFFFFFFFFFFF6
:10201000FFFFFFFFFFFFFFFFFFFFFFFFFFFFFFFFD0
:10202000FFFFFFFFFFFFFFFFFFFFFF022940FFFF52
:10203000FFFFFF022252FFFFFFFFFFFFFFFFFFFF37
:10204000FFFFFFFFFFFFFFFFFFFFFFFFFFFFFFFFA0
:10205000FFFFFF02216BFFFFFFFFFFFFFFFFFFFFFF
:10206000FFFFFFFFFFFFFFFFFFFFFF022918FFFF3A
:10207000FFFFFFFFFFFFFFFFFFFFFF0227A9FFFF9B
:10208000FFFFFF0221CB01FFFFFFFFFFFFFFFFFF6D
:1020900010201020010100000130000000004D2F31
:1020A00063319B2FB5300000892F00000000000035
:1020B0000000000000000000000096009600BF64D1
:1020C0000000000101FF010100B305000000E8036A
:1020D0002E0603E80364006400B801020200080051
:1020E000000502070401051E02051E020A0A01037B
:1020F000B80B02803E0102FEFFE8030A050001FF63
:10210000FF0A1401E0FF0020FD00034003400340EC
:1021100003402F3E293E0340424D00000000AA4DDF
:102120000000020000FF000000FF000F0610FEFF8D
:10213000050301FFFF00035F005F0030005800004F
:10214000000000000000000000000000000000008F
:10215000000000000000000000000000000000CAB5
:10216000251F261F261F261F262726C0E074F212D1
:10217000256BA2AFE433FED2AFE5A7FFE5A1F508DA
:102180005F54106006123CEB75A1EFE5085F540840
:102190006008123CF175A1F78024E508A2E092F0F6
:1021A000EFA2E082F05017906198E0F89007B4E059
:1021B000C398A2D265D0335002E8F075A1FE751A1B
:1021C00000EEA2E092AF7F01022627C0E074F21277
:1021D000256BA2AFE433FED2AF9061A4E0F8759B0B
:1021E00000E59158540860087591F7123DE180238D
:1021F000E59158541060087591EF123DE78014E5A1
:1022000091A2E092F0E8A2E082F05007E0C2E0F094
:102210001241479061A3E0F8E5E9585404600E12BA
:10222000411D75E9FB906193E0A2E640F2808FC00A
:10223000E074F212256BA2AFE433FED2AF9061A539
:10224000E0F8E5BF585404600675BFFB12415F0219
:1022500021BEC0E074F112256BE59DA2E650FA9014
:102260006206E0FAA2E25035A82CE890620BF0F585
:1022700008852D0974047808122C82E508906207FD
:10228000F0852C08852D0974097808122C82E50840
:10229000543E906209F0906201E0D2E0F07829EAC1
:1022A00046F6906202E0F508750900740478081299
:1022B0002BD97829E50846F608E50946F690620428
:1022C000E0F50875090074097808122BD9782AE519
:1022D0000946F6EAA2E05003752B0174065A600322
:1022E000752B00E58BA2E55006758BDF752B001270
:1022F00048B5758B00C2E87F02022627C3E498F830
:10230000E499F912233D8026C3E49AFAE49BFBE9A1
:1023100020E7E912233DE498F8E499F922C3E49810
:10232000F8E499F912233DE498F8E499F9C3E49AA2
:10233000FAE49BFB22EB20E7CFE920E7E0B90010AD
:10234000BB0008E88AF084F8AAF022E4FBC8FA226D
:10235000EB70227B10C833C8C933C9335007C39A06
:10236000C3DBF280069A50012ADBEAC833F4C8C9FD
:1023700033F4C9FA2275F008E4C833C8C933C93345
:10238000C99AC99B5004C92AC93BD5F0ECFBC83394
:10239000F4C8E4C9FA22080808EAC0E0EBC0E08605
:1023A000F0E7A4FA180986F0E7A42AFA180986F0DB
:1023B000E7A42AFA180986F0E7A42AFA1986F0E7B2
:1023C000A4FBE5F02AFA190886F0E7A42BFBE5F058
:1023D0003AFA190886F0E7A42BFBE5F03AFA181848
:1023E0000986F0E7A4C5F02BFBE43AFA1908E7C523
:1023F000F0C6A426F6E5F03BFBE43AFA1886F0E7CF
:10240000A4F6E5F00826F6E43B08F6E43A08F6D030
:10241000E0FBD0E0FA22122CC5B90003022479E4D3
:102420007921780DB800028004F709D8FCE4900403
:10243000D1785F790B8002F0A3D8FCD9FA781A9092
:1024400020867A01BA00028007E493A3F608DAF93D
:10245000900F2FAA82AB8390209478D879018015B1
:10246000E493A3AC82AD838A828B83F0A3AA82AB70
:10247000838C828D83D8E9D9E77582E87583BC7433
:1024800006122A0475827975834B7400122A04E4BB
:10249000CFC0E0E4CEC0E0E4CDC0E0E4CCC0E07565
:1024A000F020C3E633F608E633F608E633F608E62E
:1024B00033F6181818EC33FCED33FDEE33FEEF3332
:1024C000FFC3EC9709ED9709EE9709EF97191919D2
:1024D000400FFFEC97FC09ED97FD09EE97FE1919E7
:1024E00006D5F0BEECF709EDF709EEF709EFF7199D
:1024F0001919D0E0FCD0E0FDD0E0FED0E0FF2225AD
:1025000018C582C0E0E51934FFC583C0E0E518C3F3
:10251000958224F810AF0885831985821880088574
:102520008319858218D2AFCEF0A3E520F0A37808F6
:10253000E608F0A3DEFAEFF0A3E58124FAF8E60856
:10254000F0A3E608F0A3E608F0A30808E608F0A365
:10255000E608F0A315811581D0E0FED0E0F81581E2
:1025600015811581E8C0E0EEC0E022C0D02518C575
:1025700082C0E0E51934FFC583C0E0E518C3958249
:1025800024F310AF08858319858218800885831984
:10259000858218D2AFC8F0A3E9F0A3EAF0A3EBF06C
:1025A000A37908E709F0A3D8FAECF0A3EDF0A3EEC5
:1025B000F0A3EFF0A3D0E0F0A3D0E0F0A3D0E0F0E0
:1025C000A3E520F0A3E5F0F0A3221201000202002F
:1025D00000205104A816090001020301090243006A
:1025E0000201008019090400000102020100052413
:1025F0000010010424020205240600010524010044
:10260000010705820340004009040100020A00009E
:10261000000705840240000007050402400000E5B1
:1026200025000008260000851983851882E0C0E097
:10263000A3E0F9A3E0FAA3E0FBA37808E0F608A37F
:10264000DFFAE0FCA3E0FDA3E0FEA3E0FFA3E0C00F
:10265000E0A3E0C0E0A3E0F5D0A3E0F520A3E0A371
:10266000F5F010AF088583198582188008858319D5
:10267000858218D2AFD082D083D0E0F8D0E0320586
:1026800075F0108E218F22858226858325851882FC
:10269000851983E0CEA3E0CF852682852583EBC90B
:1026A000EAC8EDCBECCAC3E833C8E933C9EA33CA98
:1026B000EB33CBC3EA9EF524EB9FF523B35004AB79
:1026C00023AA24EC33CCED33CDD5F0DAAE21AF2202
:1026D00022D083D082ECC0E0EDC0E0E493A3FCE420
:1026E00093A3FDED4C600D1227ECEC24FFFCED34C0
:1026F000FFFD80EFE493A3FCE493A3FDED4C600D9C
:102700001228C3EC24FFFCED34FFFD80EFD0E0FD88
:10271000D0E0FCE493A3C0E0E493C0E022D083D0F7
:1027200082E9C0E0E493A3C386F0C5F095F0F90810
:10273000E493A386F0C5F095F0700BE493A3C399DE
:102740004005E9048002A3E475F002A42582F58225
:10275000E5F03583F583D0E0F9E493A3C0E0E4939A
:10276000C0E022851983851882E0A3FEE0A3F5204E
:102770007808E0A3F608DFFAE0A3FFE0A3C0E0E0FA
:10278000A3C0E0E0A3C0E0E0A3C0E0E0A3C0E0108D
:10279000AF0885821885831980088582188583197A
:1027A000D2AFD083D082022A0AC0E074F212256B25
:1027B000A2AFE433FED2AFE58AA2E2500790070051
:1027C000E0D2E0F0E58AA2E35007900700E0D2E112
:1027D000F0758A00C2EB7A107B009006FCE0F912DB
:1027E00033FDEEA2E092AF7F01022627C0E0C3E4F2
:1027F0009396087401939618400FE4936670080846
:10280000740193661870007019A3A3C3E49396082B
:102810007401939618A3A3400DD0E0D0E0D0E0025D
:10282000270DA3A3A3A3A3A3D0E022D083D082C566
:10283000F0E493A3C5F0C395F0F5F0E493A3C3953A
:10284000F04005E5F0048001E475F002A42582F56E
:1028500082E5F03583F583E493A3C0E0E493C0E020
:1028600022740480087403800474028000CCC0E0E9
:10287000EDC0E0E518C39CCCAD1950011D10AF06AA
:102880008C188D1980068C188D19D2AF122986D01C
:10289000E0FDD0E0FC2274028000CCC0E0EDC0E09E
:1028A000E518C39CCCAD1950011D10AF068C188DD6
:1028B0001980068C188D19D2AF122964D0E0FDD092
:1028C000E0FC22C0E0C0F088F0E493667008087471
:1028D000019366187000A8F0A3A3700BD0F0D0E0AD
:1028E000D0E0D0E002270DA3A3D0F0D0E022D08327
:1028F000D082CCC0E0E493A360061229A71470FA3A
:10290000E493A36006122AD31470FAD0E0FCE49397
:10291000A3C0E0E493C0E022C0E074F212256B751E
:102920008900C2C5900F27E0700E7A007B109005D9
:102930001AE0F91233FD80031249F97F01022627BC
:10294000C0E0C0D0E8C0E0E9C0E0E5A8D2AFC2C7AF
:10295000751A00A2E7A2E792AFD0E0F9D0E0F8D074
:10296000D0D0E032CAC0E0E493A3C582CCC582C512
:1029700083CDC583F0A3C582CCC582C583CDC58375
:10298000DAE5D0E0CA22CAC0E0E0A3C582CCC582A5
:10299000C583CDC583F0A3C582CCC582C583CDC513
:1029A00083DAE6D0E0CA22C0E0E493A3D39C5010BF
:1029B000E493A3C39C400AD0E0D0E0D0E002290B0E
:1029C000A3A3A3D0E02270090808082260161818F3
:1029D00018C6C333C608C633C608C633C608C633CE
:1029E000C6D5E0EA22C008C3E096F50808A3E09641
:1029F000420808A3E096420808A3E0964508700143
:102A0000D3D00822C09FF59FE473D09F22D083D0FB
:102A100082C09FE493C0E0740193C0E0740293F518
:102A20009F222518F58210AF08F51840021519806D
:102A300008F51840021519D2AF8519832274048055
:102A40000A74038006740280027401C0E0F4041268
:102A50002A22D0E0122CA022BB0102E722C082C0B1
:102A60008389828A83BB0003E08002E493D083D011
:102A70008222C0D0251810AF08F518500205198021
:102A800008F51850020519D2AFD0D02260160808F8
:102A900008C6C313C618C613C618C613C618C6136D
:102AA000C6D5E0EA22C3E0C696F608A3E0C696F6CD
:102AB00008A3E0C696F608A3E0C696F622251810ED
:102AC000AF08F518400215198008F51840021519CD
:102AD000D2AF22C0E0E493A36C7009D0E0D0E0D084
:102AE000E002290BA3A3D0E022BB000EC082C0836A
:102AF0008A838982F0D083D08222BB0101F722E051
:102B000066701008A3E066700A08A3E06670040807
:102B1000A3E06622E76670100809E766700A0809F4
:102B2000E76670040809E76622C3E09608A3E0960A
:102B300008A3E09608A3E096A2D265D03322C3E0B2
:102B400096F008A3E096F008A3E096F008A3E096BC
:102B5000F022C3E697F60809E697F60809E697F625
:102B60000809E697F622C3E4939608740193960841
:102B700074029396087403939622E026F608A3E065
:102B800036F608A3E036F608A3E036F622E026F093
:102B900008A3E036F008A3E036F008A3E036F02200
:102BA000E657F60809E657F60809E657F60809E673
:102BB00057F622E056F008A3E056F008A3E056F0DE
:102BC00008A3E056F022E627F60809E637F60809DA
:102BD000E637F60809E637F622700422600D18C6BB
:102BE000C333C608C633C6D5E0F41822E647F60854
:102BF00009E647F60809E647F60809E647F622E03F
:102C000056F608A3E056F608A3E056F608A3E056E9
:102C1000F622E4C396F608E496F608E496F608E48D
:102C200096F622C6F4C608C6F4C608C6F4C608C698
:102C3000F4C622600D08C6A2E713C618C613C6D58F
:102C4000E0F322C3E7960809E7960809E796080922
:102C5000E79622C3E09608A3E09608A3E09608A3AF
:102C6000E0962275D0007581407518D17519040061
:102C7000022416E0F608A3E0F608A3E0F608A3E0B5
:102C8000F622600C08C6C313C618C613C6D5E0F4F6
:102C900022E6F008A3E6F008A3E6F008A3E6F02297
:102CA000CAC0E0E6F0A308DAFAD0E0FA22E0FAA31C
:102CB000E0FBA3E0FCA3E0FD22EAF0A3EBF0A3EC31
:102CC000F0A3EDF022E5C754F84401F5C7790122DD
:102CD0002518F582E43519F58322C2AF75D69F0217
:102CE000000022122A0DE49303122A0D8995031283
:102CF0002A0D059603122A0D349603122A0D7A9690
:102D000003122A0DB29603122A0D839703122A0D7D
:102D1000A29703122A0DCD9703122A0D09980312C8
:102D20002A0D6E9803122A0D159A03122A0D7C9A09
:102D300003122A0DA79A03122A0DFF9C03122A0DD3
:102D4000E79D03122A0D7F9E03122A0D669F031230
:102D50002A0D11A003122A0D25A003122A0D39A055
:102D600003122A0D4DA003122A0D008006122A0D0F
:102D70003E8006122A0D6E8006122A0D1782061258
:102D80002A0DE58206122A0D918306122A0DFE8372
:102D900006122A0D718406122A0DB7A405122A0DF7
:102DA000C9A405122A0D1BA505122A0D8EA5051210
:102DB0002A0D20A605122A0DDAA605122A0D35A71E
:102DC00005122A0D61A705122A0DA3A705122A0DC7
:102DD0000CA805122A0D6FA805122A0D8CA8051241
:102DE0002A0DB2A805122A0DD0A805122A0D16A97F
:102DF00005122A0D69A905122A0D92A905122A0D9C
:102E0000E0A905122A0DB3AA05122A0D62AB05121C
:102E10002A0DF7AB05122A0DEAAC05122A0D9AC34A
:102E200004122A0DB6C304122A0DE8C304122A0D97
:102E3000B2C504122A0D77C604122A0D9CC60412CC
:102E40002A0DC9C604122A0DEDC604122A0DFCC6AD
:102E500004122A0D07C704122A0DC0C704122A0D36
:102E60002CC804122A0DB1C804122A0DC3C80412BA
:102E70002A0D48C904122A0DA3C904122A0DEFC94C
:102E800004122A0D7CCC04122A0D77CD04122A0DCF
:102E9000C1CD04122A0D94CE04122A0D69CF04125A
:102EA0002A0DB9CF04122A0DA3E804122A0D1FE936
:102EB00004122A0D45E904122A0D7DE904122A0D97
:102EC000D7EA04122A0DF3EA04122A0D38EB041291
:102ED0002A0DC7EB04122A0D20EC04122A0D00ED76
:102EE00004122A0DD0ED04122A0D17EE04122A0D39
:102EF00078EE04122A0D08EF04122A0D5EEF041278
:102F00002A0DA7EF04122A0D46F004122A0D44F1EF
:102F100004122A0D88F104122A0DD6F104122A0D8A
:102F2000F8F104122A0D9FF204122A0D4CF3041238
:102F30002A0D3D9F06122A0DA29F06122A0D4EA0B1
:102F400006122A0D87A006122A0D428E04122A0D9F
:102F5000EB8E04122A0D069004122A0D8990041299
:102F60002A0DC19004122A0D8E9304122A0D419548
:102F700004122A0DFC9504122A0D699604122A0DDA
:102F8000899904122A0D1F9B04122A0DBDC4061232
:102F90002A0DE5C406122A0DD9C506122A0DDEDE59
:102FA00005122A0D63DF05122A0D7ADF05122A0D9C
:102FB000EFDF05122A0D4DE005122A0D76E005120D
:102FC0002A0DF3E005122A0D96E105122A0DFBE108
:102FD00005122A0D5FE205122A0D80E205122A0D64
:102FE000B1E205122A0DCFE205122A0DF6E2051212
:102FF0002A0D26E305122A0D6CE305122A0DD2E3F1
:1030000005122A0D8FDC04122A0D3BDD04122A0D55
:1030100068DD04122A0D88DD04122A0D9CDD0412DD
:103020002A0DF8DD04122A0D28DE04122A0D64DFB1
:1030300004122A0D0DE004122A0DF3E004122A0DE9
:1030400044E104122A0D7EE104122A0DE3E1041288
:103050002A0D53E204122A0D74E204122A0DE5E24D
:1030600004122A0D1AE304122A0D8AE304122A0D0F
:1030700021E504122A0DF2E504122A0D34E60412A9
:103080002A0D8EE604122A0DB8E604122A0D88E7EE
:1030900004122A0D9BE704122A0DB7E704122A0D29
:1030A0005BE804122A0D8BB806122A0D95B8061299
:1030B0002A0DB6B806122A0DE8EB01122A0DACEE65
:1030C00001122A0DE2EF01122A0DC9F101122A0D97
:1030D0004DF201122A0DFBF201122A0D24F3011206
:1030E0002A0D5DF301122A0D2BF401122A0DA2F410
:1030F00001122A0D15F501122A0D95F501122A0D5E
:1031000098F501122A0D9BF501122A0D9EF5011268
:103110002A0DBCF501122A0DBFF501122A0DD8F5B2
:1031200001122A0D34F601122A0D37F701122A0D69
:1031300089F801122A0DD6F801122A0D4EF9011252
:103140002A0DFDFA01122A0D4AFB01122A0DC5FBB8
:1031500001122A0DE1FC01122A0DC3FD01122A0DF4
:103160004EA902122A0D86A902122A0D4AAE021297
:103170002A0D44AF02122A0DC0AF02122A0DE4AF8D
:1031800002122A0D04B002122A0D4EB002122A0DAC
:1031900086B002122A0DC8B102122A0DE9B102123C
:1031A0002A0D18B202122A0D52B202122A0DDEB2F4
:1031B00002122A0D01B302122A0D59B302122A0D6E
:1031C000BEB402122A0D40B502122A0D36B6021202
:1031D0002A0D84B602122A0D97B602122A0DE1B703
:1031E00002122A0D8AB802122A0DBCB802122A0D48
:1031F00010B902122A0D7CB902122A0DDBB9021293
:103200002A0D3ABA02122A0DB5BA02122A0DC5BB0E
:1032100002122A0DE0BC02122A0DA8BD02122A0DCC
:10322000DDBD02122A0D41BE02122A0DF2BE0212AB
:103230002A0D20BF02122A0DABC002122A0D39C17D
:1032400002122A0D6CC102122A0DA8C102122A0D07
:10325000C1C102122A0D77C202122A0D56C30212F0
:103260002A0D0AC402122A0D9FC402122A0D52C549
:1032700002122A0DBCC502122A0D42C602122A0DE4
:10328000CFC602122A0DEDC602122A0DB8C70212CD
:103290002A0D7EC802122A0D3AC902122A0DE1C96E
:1032A00002122A0DF5B604122A0D19B704122A0DBE
:1032B00029B704122A0DA4B704122A0D4DB804121E
:1032C0002A0DA6B804122A0D90B904122A0DBBB912
:1032D00004122A0DD6BA04122A0DF4BA04122A0DC9
:1032E00007BB04122A0D7ABB04122A0D89BB0412F3
:1032F0002A0D13BC04122A0D5BBC04122A0D65BCF6
:1033000004122A0D6FBC04122A0D98BE04122A0D55
:1033100008C004122A0D1FC004122A0D5EC1041237
:103320002A0DD0C104122A0D17C304122A0D56C348
:1033300004122A0D8BF405122A0DC2F505122A0D6E
:103340004BF805122A0D55F805122A0D5FF80512E3
:103350002A0D69F805122A0D72F805122A0D7CF85B
:1033600005122A0D98F805122A0DA1F805122A0D4A
:10337000AFF805122A0DBCF805122A0DC6F8051281
:103380002A0DEDF805122A0DF7F805122A0D67F936
:1033900005122A0D71F905122A0DA0CB05122A0D6E
:1033A000ECCB05122A0D5ACC05122A0D7BCC051246
:1033B0002A0D92CC05122A0D42CD05122A0D4BCDB5
:1033C00005122A0D9ECD05122A0DC7CD05122A0D14
:1033D000DCCD05122A0D45CE05122A0DD6CE0512DA
:1033E0002A0D12CF05122A0D5ECF05122A0DC5CF68
:1033F00005122A0DFECF05122A0D84D005122A0DC2
:10340000C3D005122A0D04D105122A0D3BD1051295
:103410002A0D4DD105122A0D5FD105122A0D92D128
:1034200005122A0DD2D105122A0DFBD105122A0D43
:10343000EFFA02122A0D32FC02122A0D58FC021277
:103440002A0D69FC02122A0D82FE02122A0DA1FE2B
:1034500002122A0DC1FD03122A0DF7FD03122A0DD7
:1034600042FE03122A0D90FF03122A0DE1D9031226
:103470002A0D2CDB03122A0D68DB03122A0D1FDD37
:1034800003122A0D48DD03122A0DE0DF03122A0D74
:1034900020E003122A0DC1E103122A0D5BE20312A0
:1034A0002A0DC3E203122A0D50E303122A0D88E30A
:1034B00003122A0DC8E303122A0D5BE503122A0D3D
:1034C000FAE603122A0D49E903122A0D77E90312DD
:1034D0002A0DA3E903122A0DACE903122A0D07EA0B
:1034E00003122A0D9DEA03122A0DC6ED03122A0DBE
:1034F0004BEE03122A0D29CF06122A0D3FCF0612DA
:103500002A0D49CF06122A0D99CF06122A0D248EB4
:1035100006122A0D3D8E06122A0DE28E06122A0D83
:10352000228F06122A0D3B8F06122A0D748F061267
:103530002A0DC18F06122A0DF38F06122A0D35901F
:1035400006122A0D389206122A0DA29206122A0D90
:1035500042C706122A0D9CC706122A0DF5C706128D
:103560002A0DC7CF06122A0D09D006122A0D4BD0FC
:1035700006122A0D5BD006122A0D61A003122A0D35
:10358000BCA003122A0D6EA103122A0D84A20312FD
:103590002A0D70A303122A0D48A403122A0D5DA45C
:1035A00003122A0DA7A403122A0DFDA403122A0D4B
:1035B00069A503122A0D7CA503122A0DD4A50312B6
:1035C0002A0D4DA603122A0D65A603122A0D03A982
:1035D00003122A0D18AA03122A0D73AA03122A0D28
:1035E000C7AA03122A0DE3AC03122A0D43AD03123E
:1035F0002A0DC4AD03122A0DABAE03122A0DEBAE99
:1036000003122A0D0AAF03122A0D55AF03122A0D19
:103610006BAF03122A0D82AF03122A0DB1AF031252
:103620002A0DC3AF03122A0DBDB003122A0DC8B074
:1036300003122A0D4AB103122A0DA2B103122A0D58
:10364000FFB103122A0D2FB303122A0D60B3031228
:103650002A0DDDB503122A0D0EB603122A0DABB6E4
:1036600003122A0DE7B603122A0D63B703122A0DBF
:1036700029B803122A0D65B803122A0DD1B8031216
:103680002A0DB0B903122A0DE9B903122A0DF3B9B4
:1036900003122A0DF6B903122A0D00BA03122A0DDD
:1036A0001CBA03122A0D9ABA03122A0DD3BA0312B6
:1036B0002A0DEFBA03122A0D1BBB03122A0D56BBAB
:1036C00003122A0D71BB03122A0D7CBB03122A0DB3
:1036D000BDBB03122A0DD0BB03122A0DEBBB031294
:1036E0002A0D1BBC03122A0D38BC03122A0D81BC03
:1036F00003122A0DC9BC03122A0DCCBD03122A0DD8
:1037000081CA06122A0D92CA06122A0D1BCB061276
:103710002A0D67B505122A0DB6B505122A0D73B725
:1037200005122A0D51B905122A0D95B905122A0D57
:103730008ABA05122A0DBBBB05122A0DDDBB051284
:103740002A0D39BC05122A0DBDBC05122A0D0080B8
:1037500002122A0D228002122A0D728102122A0DF3
:10376000BB8102122A0D118202122A0D8D820212D1
:103770002A0DF68202122A0D3D8302122A0DB6830B
:1037800002122A0D618402122A0DE98402122A0D06
:103790002A8502122A0D8A8902122A0DAE8B021284
:1037A0002A0DE78B02122A0D268C02122A0D4D8D4E
:1037B00002122A0D599002122A0D059102122A0DA9
:1037C000BE9202122A0D089402122A0D0C950212C2
:1037D0002A0D7F9502122A0D4F9602122A0DD896B5
:1037E00002122A0DE89602122A0D9C9702122A0D47
:1037F000CA9802122A0D349B02122A0DF49D02125D
:103800002A0DD19E02122A0DFF9F02122A0D65A3D6
:1038100002122A0D75A302122A0DB0A402122A0D5B
:1038200044A502122A0D73A602122A0DEBA602125B
:103830002A0D22A802122A0D9DA802122A0D1EBFCF
:1038400003122A0DDBBF03122A0D58C003122A0DE2
:1038500067C003122A0DF0C003122A0D47C10312DC
:103860002A0D52C203122A0D7BC203122A0D23C352
:1038700003122A0D76C303122A0DE1C303122A0D87
:1038800040C403122A0D45C703122A0DF5C70312BF
:103890002A0D64C803122A0DFEC903122A0DB6CAE6
:1038A00003122A0D53CB03122A0DB4CB03122A0D97
:1038B0002ECC03122A0D35CD03122A0D1FCE031272
:1038C0002A0D65CE03122A0D9ECE03122A0DB2CE0A
:1038D00003122A0DFBCE03122A0D7FCF03122A0DED
:1038E000F5D003122A0DC9D203122A0D00D40312F7
:1038F0002A0D3FD503122A0D54D603122A0D01D7E3
:1039000003122A0D72D703122A0D6CD803122A0D46
:10391000A6CA02122A0D15CB02122A0D63CB02127F
:103920002A0DADCB02122A0D07CC02122A0D5FCC54
:1039300002122A0DA0CC02122A0D55CD02122A0D18
:10394000AACD02122A0D33CF02122A0DA7CF0212DE
:103950002A0DAAD002122A0DCAD102122A0DF6D1BE
:1039600002122A0DFCD202122A0D0DD302122A0DC8
:1039700023D302122A0D0FD402122A0D32D40212BE
:103980002A0D00D502122A0D28D502122A0D3FD584
:1039900002122A0D59D502122A0D94D502122A0DAF
:1039A000C0D502122A0DE6D502122A0DFDD502124B
:1039B0002A0DE6D602122A0D48D702122A0DD7D8B0
:1039C00002122A0D5CD902122A0D80D902122A0D88
:1039D00097D902122A0D74DA02122A0D08DB02129C
:1039E0002A0D2EDB02122A0D87DC02122A0DB6DC0C
:1039F00002122A0D4EDD02122A0D8ADD02122A0D54
:103A0000C7DD02122A0D75DE02122A0DDFDE021258
:103A10002A0DC3DF02122A0DAEE102122A0D88E23E
:103A200002122A0DEAE202122A0D0FE402122A0DF6
:103A30002FE502122A0D58E602122A0D66E602123E
:103A40002A0D76E702122A0D1EE802122A0D71E8ED
:103A500002122A0D86E802122A0D8EE902122A0DA0
:103A60003AEA02122A0D9FEA02122A0D50AD0612FE
:103A70002A0D8BAD06122A0D54AE06122A0DBAAECF
:103A800006122A0D2BAF06122A0DBFAF06122A0D01
:103A900064BD06122A0D008004122A0D2E80041225
:103AA0002A0D878004122A0DDF8004122A0D6381FB
:103AB00004122A0DC98304122A0D6C8504122A0DE2
:103AC0003D8604122A0DA58704122A0D708A04125D
:103AD0002A0DA78D04122A0DB68D04122A0D7CF929
:103AE00005122A0D35FA05122A0D7FFA05122A0D44
:103AF000D2FA05122A0D21FB05122A0D8CFB0512A4
:103B00002A0DFCFB05122A0D18FC05122A0D4CFC8F
:103B100005122A0D94FC05122A0D94FD05122A0D9A
:103B20001BEA05122A0D83EC05122A0D08EE051278
:103B30002A0DBBEE05122A0D5DCC06122A0D6ECCA5
:103B400006122A0D0ECD06122A0D6AC306122A0D80
:103B5000A2C306122A0DC3C306122A0D05C40612FB
:103B60002A0D69C406122A0D73C406122A0D968DF9
:103B700003122A0D55FE05122A0D63FE05122A0DA9
:103B800099F304122A0D61F704122A0D1EF904128A
:103B90002A0D43FB04122A0D02FC04122A0DCFFC4D
:103BA00004122A0DE4FF04122A0D74CB06122A0D0A
:103BB00084CB06122A0D9CCB06122A0D50CC06127D
:103BC0002A0D7DC906122A0D02CA06122A0D68CADC
:103BD00006122A0DDCCD06122A0D6C9303122A0D53
:103BE00018CE06122A0D6BCE06122A0D7DCE0612B5
:103BF0002A0D80CE06122A0D2C9B06122A0D3A9B06
:103C000006122A0DB49B06122A0D989C06122A0D44
:103C10005C9E06122A0DC19E06122A0D249F0612D2
:103C20002A0DF87F00122A0DD8BA06122A0D10BBF1
:103C300006122A0D61BC06122A0DE5BC06122A0DD9
:103C40003E7D00122A0DDF7D00122A0D1D7E00121E
:103C50002A0D697E00122A0D2D7F00122A0D607F29
:103C600000122A0D877F00122A0D997F00122A0D5B
:103C7000AD7F00122A0DB07F00122A0DBE7F001208
:103C80002A0DADD805122A0DD5D805122A0DF2DB62
:103C900005122A0D47DC05122A0D89DC05122A0DB2
:103CA0009DDC05122A0DB6DC05122A0DCEDD0512AB
:103CB0002A0DAADE05122A0DC4DE05122A0DF5C151
:103CC00006122A0D19C206122A0D32C206122A0D38
:103CD00071C206122A0DA4C206122A0DD4C20612FF
:103CE0002A0DDEC206122A0D46C306122A0D49C34A
:103CF00006122A0D53C306122A0D60C306122A0D9E
:103D000054EB02122A0D99EB02122A0D55EC021205
:103D10002A0D7CED02122A0DABEE02122A0D75F06F
:103D200002122A0DEBF002122A0DAFF102122A0D37
:103D3000D0F202122A0D3BF302122A0D7DF3021279
:103D40002A0DF6F302122A0D2FF402122A0D84F422
:103D500002122A0D1AF502122A0DACF502122A0DD2
:103D600093F602122A0D88F702122A0D3CF802126D
:103D70002A0D64F802122A0D90F802122A0DB3F8E7
:103D800002122A0D6DF902122A0D63FA02122A0D8F
:103D90007CFA02122A0DCBFA02122A0DD7FA02126D
:103DA0002A0DE3FA02122A0D31B306122A0D59B375
:103DB00006122A0D9AB306122A0DB8B306122A0D5E
:103DC000D3B306122A0D3BB406122A0D47B40612CD
:103DD0002A0DA6B406122A0DCAB406122A0D8BB5F6
:103DE00006122A0D98B506122A0DA9B506122A0D3B
:103DF000878905122A0DEB8905122A0D4E8A0512B4
:103E00002A0D988A05122A0DB38A05122A0DE58A11
:103E100005122A0D028B05122A0D0E8B05122A0D92
:103E2000328D05122A0D4F8D05122A0DDB8D0512DC
:103E30002A0DEE8D05122A0D018E05122A0DB38E64
:103E400005122A0D1F9005122A0D509105122A0DF8
:103E5000EF9105122A0DF99105122A0D6A920512A9
:103E60002A0D7B9205122A0DBB9205122A0D48C419
:103E700005122A0D73C405122A0DD7C405122A0D86
:103E800006C505122A0D3DC505122A0D9BC5051252
:103E90002A0DFAC605122A0D59C705122A0D9DC70B
:103EA00005122A0D3DC805122A0D65C805122A0DF6
:103EB0009AC805122A0DA8C805122A0D13C90512A1
:103EC0002A0D84C905122A0DC3C905122A0DFEC97F
:103ED00005122A0D29CA05122A0D43CA05122A0DF8
:103EE0005DCA05122A0D3BCB05122A0D4CCB0512DB
:103EF0002A0D86CB05122A0D95CB05122A0D2BD241
:103F000006122A0D43D206122A0D86E405122A0D46
:103F1000D9E405122A0DF6E405122A0D1AE6051257
:103F20002A0D2CE605122A0D42E605122A0D5BE643
:103F300005122A0DFDE605122A0D89E705122A0D44
:103F400041E805122A0D4DE805122A0D9CE90512DB
:103F50002A0DBEE905122A0DA8EF05122A0D15F14A
:103F600005122A0D1BF105122A0D32F105122A0D38
:103F700053F105122A0D69F105122A0D7DF1051282
:103F80002A0DFCF105122A0D61F205122A0DE9F243
:103F900005122A0D62F305122A0D3BF405122A0DB3
:103FA0004BF405122A0D5AF405122A0D90CE061272
:103FB0002A0DB4CE06122A0DDCCE06122A0D04CF2D
:103FC00006122A0D5F9C04122A0D919C04122A0DE0
:103FD000AB9C04122A0D0D9D04122A0DA69D0412FD
:103FE0002A0DF19D04122A0D46A004122A0D01A1EA
:103FF00004122A0D2AA204122A0DD6A204122A0D96
:104000002AA504122A0D4CA504122A0D4FA504124C
:104010002A0D57A504122A0D74A504122A0D7CA599
:1040200004122A0DB5A504122A0DCCA604122A0DDD
:1040300049A704122A0DC7A704122A0D63A8041267
:104040002A0D3AA904122A0D6AA904122A0D0DAAF2
:1040500004122A0D19AA04122A0D44AA04122A0DC8
:104060007DFD04122A0DA4FD04122A0DC5FD0412C3
:104070002A0D2CFE04122A0D42D106122A0D52D10D
:1040800006122A0D55D106122A0D84D106122A0DC8
:1040900055B006122A0D6EB006122A0D85B0061212
:1040A0002A0D8EB006122A0DACB006122A0DB6B03B
:1040B00006122A0DC0B006122A0DD3B006122A0D20
:1040C00061B106122A0DD0B106122A0DFEB10612F8
:1040D0002A0D4FB206122A0DA0B206122A0DBBB24B
:1040E00006122A0DC5B206122A0DD6B206122A0DE4
:1040F0001CB306122A0DE5D006122A0D36D106127F
:104100002A0D008005122A0D2C8005122A0D4A80E6
:1041100005122A0D5D8005122A0D788005122A0DE0
:10412000D78005122A0D058105122A0D2385051257
:104130002A0D598605122A0D8B8605122A0DF38643
:1041400005122A0D708805122A0D988805122A0D6D
:10415000AD8805122A0DBD8805122A0DFD880512AD
:104160002A0D498905122A0D598905122A0D0AC6F8
:1041700006122A0D1AC606122A0D38C606122A0D74
:1041800053C606122A0D7AC606122A0D9BC60612BF
:104190002A0DB5C606122A0DEDC606122A0D10C745
:1041A00006122A0D29D205122A0DA6D205122A0DB1
:1041B000F8D305122A0D94D505122A0D2CD6051216
:1041C0002A0D76D705122A0D30D805122A0D68D887
:1041D00005122A0DA2D805122A0D28CD06122A0D85
:1041E0006ECD06122A0DAF9206122A0DE392061228
:1041F0002A0DA09306122A0D5A9406122A0DDE9457
:1042000006122A0D889506122A0DFB9506122A0D14
:10421000329606122A0D759606122A0DB0960612CF
:104220002A0D43A306122A0D4AA306122A0D67A4DB
:1042300006122A0D97A406122A0DBDA406122A0DF5
:10424000F0A406122A0D02A506122A0D3EA506129A
:104250002A0DA4A506122A0DE0A506122A0D27A6EE
:1042600006122A0D54A606122A0D80A606122A0D41
:104270004B5100122A0D915100122A0DA454001224
:104280002A0DE55400122A0D315500122A0D9D56B3
:1042900000122A0D0B5700122A0D525700122A0D38
:1042A000A45800122A0D745C00122A0DBE5D001283
:1042B0002A0D666900122A0DF56900122A0DFA6CA2
:1042C00000122A0D616E00122A0DCA6E00122A0D0C
:1042D0000A7000122A0D687100122A0D6072001215
:1042E0002A0D117500122A0D197700122A0DAA77CE
:1042F00000122A0D987800122A0D3B7900122A0D1F
:104300004C7900122A0D847900122A0D3C7A001291
:104310002A0D3E7B00122A0D2D7C00122A0DBA7C3C
:1043200000122A0DCD7C00122A0DD97C00122A0D14
:10433000FA9205122A0D089305122A0D33930512DD
:104340002A0D609305122A0DBD9505122A0DAE9611
:1043500005122A0DEE9605122A0D739705122A0DE5
:10436000439805122A0D759805122A0DCD9805124D
:104370002A0DFE9805122A0D5A9905122A0DAB999D
:1043800005122A0DB09905122A0D0E9A05122A0D52
:10439000619A05122A0D419B05122A0DB49B051244
:1043A0002A0DF0BE06122A0D27BF06122A0D4FC095
:1043B00006122A0D52C006122A0D55C006122A0DE9
:1043C0007D8101122A0DE68101122A0DF484011269
:1043D0002A0DC68501122A0D468701122A0D478A29
:1043E00001122A0DE78A01122A0D558D01122A0D9C
:1043F000F68D01122A0D348E01122A0D1890011229
:104400002A0D2C9001122A0D369001122A0D40908F
:1044100001122A0D4C9001122A0D6B9001122A0DE7
:104420009B9201122A0DF09201122A0DFA920112AA
:104430002A0D049301122A0D609301122A0DB593DF
:1044400001122A0DD49401122A0D359501122A0D5C
:104450009A9601122A0DFD9601122A0DA1970112BA
:104460002A0D809801122A0D2D9901122A0D169AF3
:1044700001122A0D2C9B01122A0D069C01122A0DF5
:104480001D9C01122A0D5A9C01122A0D669C0112D4
:104490002A0D6F9C01122A0D819C01122A0D9F9CEE
:1044A00001122A0DE89C01122A0D4B9D01122A0DC2
:1044B0006F9D01122A0D929D01122A0D109E01126C
:1044C0002A0D4D9E01122A0D889F01122A0DC89FA8
:1044D00001122A0DE2A001122A0D18A101122A0DC3
:1044E00092A101122A0D2FA201122A0D95A30112E9
:1044F0002A0DB4A401122A0D6FA501122A0D58A687
:1045000001122A0DEAA601122A0D6EA701122A0D28
:1045100019A801122A0D6FA801122A0DD5A801129F
:104520002A0D93A901122A0DBBA901122A0D66AA10
:1045300001122A0D8AAA01122A0DACAA01122A0D13
:104540000DAB01122A0D6CAD01122A0D52AE0112F3
:104550002A0D22AF01122A0D6BB101122A0DB9B139
:1045600001122A0DFCB101122A0D5BB201122A0DB3
:10457000B5B201122A0DE2B201122A0D06B30112E0
:104580002A0D39B301122A0D77B301122A0DC5B3D2
:1045900001122A0D24B401122A0D80B401122A0D31
:1045A00092B501122A0DFAB601122A0D3BB701127B
:1045B0002A0D64B701122A0D01B801122A0D4BB859
:1045C00001122A0D6FB801122A0DB8B801122A0D76
:1045D000D8B801122A0D93B901122A0DCCB90112D3
:1045E0002A0D16BA01122A0D6CBA01122A0D71BDDC
:1045F00001122A0DA4BD01122A0D7BBE01122A0D43
:1046000059BF01122A0DE4BF01122A0DD7B50612B7
:104610002A0D02B606122A0D26B606122A0D90B6EB
:1046200006122A0DDEB606122A0DFAB606122A0D59
:1046300067B706122A0DB4B706122A0D05B806127E
:104640002A0D25C001122A0DC5C001122A0D97C2DC
:1046500001122A0DFCC201122A0D35C401122A0DC5
:104660005BC401122A0DCBC501122A0D4CC90112DF
:104670002A0D4FCB01122A0D4BCD01122A0DE7CD89
:1046800001122A0DDBCF01122A0D76D001122A0D5C
:10469000BFD001122A0D25D101122A0D2FD10112EE
:1046A0002A0D68D301122A0D71D401122A0DDBD50F
:1046B00001122A0D23D601122A0DD7D601122A0D76
:1046C00084D801122A0DE8D901122A0D07DA011245
:1046D0002A0D5CDA01122A0D5FDB01122A0D8EDB36
:1046E00001122A0DF3DB01122A0DE8DC01122A0D5A
:1046F00058DD01122A0D84DE01122A0DEFDE0112AF
:104700002A0D18E001122A0D9CE201122A0DD4E2B2
:1047100001122A0DCBE501122A0D20E601122A0D05
:10472000DEE601122A0D85E701122A0DDEE70112ED
:104730002A0D97E801122A0D3DE901122A0DA5E97B
:1047400001122A0DEFE901122A0D20EA01122A0DA9
:1047500078EB01122A0D6AC806122A0DDCC806126F
:104760002A0D1AC906122A0D5BC906122A0D33AD8D
:1047700005122A0D39AD05122A0D86AD05122A0D36
:10478000AAAF05122A0DE2AF05122A0D4EB005128E
:104790002A0D1BB105122A0D60B105122A0D93B125
:1047A00005122A0D1DB205122A0D35B205122A0D69
:1047B000D8B305122A0DD0B405122A0D2EB5051254
:1047C0002A0D1FD004122A0D43D004122A0D07D13E
:1047D00004122A0DC8D104122A0D6FD304122A0D17
:1047E00009D404122A0D48D404122A0DC4D4041288
:1047F0002A0D23D604122A0DD7D604122A0D18D753
:1048000004122A0D30D704122A0DD9D704122A0D0A
:10481000A1DA04122A0D47DC04122A0D6FDC0412FF
:104820002A0DBB8406122A0DA48506122A0D528970
:1048300006122A0D149C05122A0D2A9C05122A0D17
:10484000DC9C05122A0DD79D05122A0DCF9E05125C
:104850002A0D679F05122A0DA69F05122A0D1EA07C
:1048600005122A0D80A005122A0D90A005122A0D0E
:10487000B7A005122A0D09A105122A0D9CA2051246
:104880002A0DA1A205122A0DC3A205122A0D65D078
:1048900006122A0D93D006122A0DC8D006122A0D30
:1048A000CAD006122A0DCCD006122A0DDDD006126F
:1048B0002A0DDFD006122A0DE2D006122A0D6BFE59
:1048C00001122A0DD9FE01122A0DFBFE01122A0D3A
:1048D00033FF01122A0D69FF01122A0D21AA0612C7
:1048E0002A0D64AA06122A0D82AA06122A0DB3AC5A
:1048F00006122A0DEBAC06122A0D10AD06122A0D77
:1049000098D106122A0DEDBC05122A0DC0BD051264
:104910002A0DB7BE05122A0DC8BE05122A0DD9BE32
:1049200005122A0D25BF05122A0D16C105122A0DE2
:1049300073C205122A0DA3C205122A0D6FC30512F8
:104940002A0DCCC305122A0D159706122A0D33978E
:1049500006122A0D779706122A0D9D9706122A0D28
:10496000C49706122A0DDC9706122A0DF497061238
:104970002A0D0C9806122A0DB29806122A0DF098EC
:1049800006122A0DFA9806122A0D139906122A0DFC
:10499000219A06122A0D3C9A06122A0D459A0612F1
:1049A0002A0D4E9A06122A0D579A06122A0D619A5E
:1049B00006122A0DC59A06122A0D728906122A0DB0
:1049C000998D06122A0DB58D06122A0DBA8D061282
:1049D0002A0DD5A606122A0DEBA606122A0D6DA8E1
:1049E00006122A0D97A806122A0DDFA806122A0D14
:1049F000F2A906122A0D7FC006122A0D06D206124F
:104A00002A0D69D206122A0D6E8C03122A0D648BB0
:104A100003122A0D368A03122A0D5B8903122A0D0E
:104A2000DC8803122A0DD98703122A0D2E87031260
:104A30002A0D858603122A0D338603122A0D8C85D2
:104A400003122A0D498503122A0DEC8403122A0D44
:104A5000BD8403122A0D4B8403122A0D068403120F
:104A60002A0DAB8303122A0D7A8303122A0D0080CC
:104A700003122A0DDFFC03122A0D94FC03122A0DE7
:104A800088FC03122A0DD1FB03122A0D83FA0312AC
:104A90002A0D2DF703122A0D1FF403122A0DDDF340
:104AA00003122A0D809203122A0D109103122A0D6F
:104AB000D79003122A0DA99003122A0DDE8F03123C
:104AC0002A0D82F203122A0D1FF203122A0D3AF167
:104AD00003122A0DF4F003122A0D1E8E03122A0D62
:104AE0001DEF03122A0DDEEE03122A0DA8EE0312AB
:104AF0002A0DBDB604122A0DC88D03122A0DDFCD72
:104B000006122A0D71B604122A0D20B604122A0DBF
:104B1000E9B504122A0DB8B504122A0D88B504129D
:104B20002A0D60B504122A0D00B504122A0DE2B454
:104B300004122A0DA7B404122A0D03B404122A0D7C
:104B400054B004122A0D63AE04122A0D1BAC0412D9
:104B50002A0D97AB04122A0D47AB04122A0D4EAA58
:104B600004122A0DD5AA04122A0D998D03122A0DBA
:104B70009DAA04122A0D83C40600000080FBE47382
:104B80008F000100C90687000100C806240002004A
:104B90006E0F25000200700F26000200720F270022
:104BA0000200740F28000100760F29000100770F22
:104BB00084000400780F860001007C0F2A000100A9
:104BC0007D0F2B0001007E0F2C000100820F2D00B5
:104BD0000800B0062E000100830F2F000100840F93
:104BE00030000100850F31000100860F3200010006
:104BF000B80633000100B90634000100870F360003
:104C00000100BA0638000100880F39000100810F49
:104C1000830002009A0F63000100C50664000100D2
:104C20007F0F65000100800F6D000100C606710056
:104C30000800A80666000100990F430001008A0FD2
:104C4000440002008B0F450001008D0F460002005A
:104C50008E0F47000800BD0648000100900F4B0072
:104C60000100910F040001009C0FA10001009F0FA3
:104C7000370001009E0F880001009D0F3C000100DD
:104C8000BB063D000100890F49000200920F67003A
:104C90000100C7064D000200940F4E000100960F60
:104CA0004F000200970F3E000100BC06000000000C
:104CB000000000013636010100010201000103017C
:104CC0000001040106060502000007010034080186
:104CD000000F090401010D0100FF0E08000017027A
:104CE0000000190100FF1A0100011B0100FE1C0158
:104CF00000081D0200001F01000120010001210227
:104D000000002301000F24020000260100012701FA
:104D10000008280200FF2A0100072B0102402C0195
:104D200000002D0100012E0100012F0100FF3001C4
:104D30000B1C310800003A0100083B01000F3C0148
:104D400000010300710030016000110070003102A9
:104D50002003500480001000610000001400630074
:104D600073007200620043000000130006000000A0
:104D70000000040012000000000000000000040019
:104D80000400370037003C0244000000000000002F
:104D900000006500000035008100000005000000F3
:104DA000830000006600000000000103710301039E
:104DB00001030103010301032203020301031003A2
:104DC0000003000300030003000300030003420389
:104DD0000003240306030003000304031203250356
:104DE0002303250323030403040300030003000338
:104DF000440300030003230300036503210035037C
:104E000081030003050300030003000300032503DF
:104E100023030304710402046004110470040204F7
:104E20000204010402041004610400041404630475
:104E300073047204620443040004130406040004AF
:104E400000040404120400040004000400045104DB
:104E5000640000040004000444040004000400048E
:104E600000046504000435048104640005040004A2
:104E700083040004660400040004010171010101BF
:104E80000101110101013101010101018001100144
:104E900061013B001400630173017201620143016F
:104EA0000001130106013D0135000401120100015A
:104EB00000010001000104010401330133013C0140
:104EC0004401320136000001000165010001350096
:104ED00081010001050182018301000166010001D9
:104EE000000103027102300160021102700201022E
:104EF000020202028002100261023A0041006302D3
:104F000073027202620243020002130238000002BE
:104F10000002040212020002000200020002040267
:104F20000402370037003C0244020002390000024C
:104F300000026502000235028102000205028202BF
:104F40008302000266020002000200007D381300A6
:104F5000ED3701007D3802006F370300753704001C
:104F60007B370500813706008D373000B1373100BF
:104F7000AB373200BD373300C3373500C937340093
:104F8000CF373600D5371100E1371400E737150069
:104F90009F371F00A537FFFF000036000100060005
:104FA00000000F00000000000000000000000000F2
:104FB00003FFFF00000403FFFF0000FFFF0FF401E9
:104FC0000005C4040320000100000B0000000000E5
:104FD00000000003010F0001B54206EB4208E54264
:104FE0000B0343100B470A154302BB4205D9420786
:104FF000C1420C9D420DA942649F2EFF000007ECA8
:10500000FDFDFDECDCDCCCBCACAC9C9C8C7C7C6CFD
:105010006C5C5C5C4C4C3C3C2C2C1C1C893EB93EB2
:105020008F3E953EB33EA73EA13EBF3EC53ECB3E22
:10503000D73E9B3E833E7D3E03EAF5E5D5D5C5B51B
:10504000A595958585757565655555454535352510
:105050002515150500160F00000B150B0200022286
:105060000F3300000E01030507090B0D0F000204AA
:1050700006080A0C0D5A6967426565416C6C6961E6
:105080006E636530393F3D393D753D813D6F3D274C
:105090003D7B3D034015401B40533E21404D3E5952
:1050A0003E00393D3F373C3C362C442D63303017B1
:1050B000181921301B1D1F3033A741C541CB41AD0D
:1050C00041B941B341303016181920231A1C1E3043
:1050D00032000119161816161823030000034A4956
:1050E000434E181A2505020C0E020B040B0A070882
:1050F000000F7B4027402D4039403340AD3ED13E2C
:10510000BF41DD3EE33E0204020101010109024B01
:105110003D513D453D873D00BE040AE80300005770
:105120003D693D0E003C007F0000000000E8033CAC
:1051300000100C0A03030C0900040028FF1E1E09BE
:10514000050C08150404011008080374F71224FF65
:10515000E99008C4F0900879E4F012439F12432DBF
:105160009008C5E4F0A3F012455B9006C8E0600427
:1051700064017006122E1B12463F1243A5900529AA
:10518000E4F0A3F01249938003122A727F010227F0
:105190006374F01224FFEAFEEBFF5480606890080D
:1051A000C4E0F91233D38A088B09EA4509604F7CC1
:1051B0000080010CEC75F003A4F8A9F074D728F571
:1051C00082744F39F583E493F4602CE493F88508F6
:1051D000828B83E06870DCAA08EC75F003A4F87495
:1051E000D828F582744F39F583E493C0E0740193B5
:1051F000F583D082124B7EAA08AB091233C1EEFAB6
:10520000EF648002549AEF5420601E1243998A087A
:105210008B09EA4509600A1242A9AA08AB091233B0
:10522000C1EEFAEF642002549A9006C8E06402705E
:1052300024EEA2E0501F90087EE0640F7011790008
:10524000124279E96009900F6E12715E124291EE7E
:10525000640102539DEE5420700302536E750C00DE
:105260007A207B009008C4E0F9123535EA4B4C4DAA
:1052700070179081541228617A207B009008C4E056
:10528000F91235297404122A727C0079047A007BA1
:10529000001243638A088B09801885088285098378
:1052A000A3A3A3A3A3A3A3A3A37401F0850A0885C2
:1052B0000B09E508450970030253447C007904AAF0
:1052C00008AB091243638A0A8B0B750C01E50824AD
:1052D00004F8E5093400F988828983E024FFF0A30B
:1052E000E034FF125C6E126EC470C18508828509BD
:1052F00083A3A3A3A3A3A3A3A3A3A3E06401709A7E
:10530000850882850983A3A3A3A3A3A3E054047003
:1053100089850882850983A3A3A3A3A3A3A3A3A329
:105320007406F0E508240BF582E509125C0D7003A4
:1053300074B7F0E0FA85088285098312569112420B
:105340008B0252AC1243337C0079017A007B00124D
:1053500043638B09EA45097010E50C700C7A207BD9
:10536000009008C4E0F912352FEE6420802FE06031
:10537000076401600302546DEE5410600812467B0E
:10538000EE64108018EE544060081246F3EE64405C
:10539000800BEE5480600B1232D7EE6480FAEF027D
:1053A000549AEF54016016900EB0126EC46006124B
:1053B000725C124B7EEEFAEF640102549AEF5408CD
:1053C000604712464B9006B8E0640170349006B90D
:1053D000E0602EF508E4F509F50AF50B90812878D0
:1053E0000C122C737808790C1223967808122A3D37
:1053F0007A007B089008C4E0F91235297404122A57
:1054000072EEFAEF640802549AEF5410601290089A
:10541000D6E06005E4F012464BEEFAEF6410807AB5
:10542000EF54406048900EBA126EC46039900EC0BE
:10543000126EC460319006BCE064017029900EBA0F
:10544000127259124B7E900EC0127259124B7E90FE
:1054500081101228617A007B409008C4E0F912356F
:10546000297404122A72EEFAEF6440802DEF540280
:10547000600A124525EEFAEF6402801EEF540460C4
:105480001C90052B12715E12442979019008771245
:10549000715E123355EEFAEF6404FB80047A007BF0
:1054A00000026CF5C082C08374EA122ABD7408122F
:1054B0002CD07402F090086D126E5290087712741E
:1054C000E47409122CD0126E5B7413122CD0125497
:1054D000DC1249817416122A72027945E4125BFFCC
:1054E000AA82AB832274F71224FF74DF122ABDEA6A
:1054F000FEEBFFEE4F6033851882851983AC82ADD9
:10550000831243E17406122CD0E0601E7417122C33
:10551000D0E0FD7401122CD0E0FCEEFAEFFB790034
:10552000124813E9600479A48002790074210251C1
:105530008974F41224FFEAFEEBFF8E828F83A3A30B
:10554000A3A3A3A3E054406016125C6212449BE93B
:1055500060077AFF7BFF02563D125C620256339071
:1055600006C8E0600764016003025619900864E011
:10557000A2E14003025619125C27125C1BE0FA8874
:10558000828983A3A3A3A3A3E0F9EA2400F508E496
:1055900039F5098E828F83A3A3A3A3A3A3A3E05409
:1055A000106004794080027900750AFE750BFF785F
:1055B0000A122A45EE240F127B1E122869AC08AD90
:1055C00009125C621246517404122A72E5086A706C
:1055D00003E5096B600EEE240F125C0A6A7003A3E8
:1055E000E06B704F750A00780A122A4979028E82A0
:1055F0008F83125896FCA3E0FDAA08AB091244DD84
:105600007401122A727508CDAA088E828F831256F1
:105610009112428BE9606880739006C8E064026072
:105620000FE06004640170DD900864E0A2E140D501
:1056300012440574FE6A700374FF6B60C88E828F1B
:1056400083127259EAF0A3EBF012449BE98E828F29
:10565000836005127D148003127D1B127D31124977
:1056600087E9F50870A29006C8E064027011900FF7
:1056700072126EC46009900F7212715E124291EE46
:105680004F60097901EEFAEFFB12433FA908025778
:105690004D1268E7240CF582E8125DA12274F6121F
:1056A00024FFE9FEEAFF7A0F7B001233BBEA4B606E
:1056B0001E8A828B83740CF0EEA3A3F0EF8A828B98
:1056C00083A3F09008C4E0F91233C779008037EE65
:1056D000F91243698A088B09A808A909E8496024D6
:1056E00088828983A3A3A3A3A3A3A3A3A37406125D
:1056F0005C6EA3A3A3A3A3A3A3A3E0F9124705EEA3
:10570000F912434579107F0202276374F41224FFD3
:1057100090087EE0640F7030EA4B602C900879E0CE
:1057200064086005E06404701F8A088B09E4F50AC8
:10573000F50B7808122A3D7A017B009008C4E0F945
:105740001235237404122A728003122A727F040213
:10575000276374F21224FFEAFEEBFF8C088D09899F
:105760000A740E122CD0E0F50CA3E0F50D850C8226
:10577000F583E4F0A3F0125890F9124477E9601928
:1057800012715112449BE96402700E1274D7850C99
:1057900082850D83126E5B8003750A001258901487
:1057A000602514603A14605714605F14603F146001
:1057B0007724FE700302584014700302585414708A
:1057C00003025867025875780C122A45AC08AD09D7
:1057D000EEFAEFFB1246637402122A72025870ACA2
:1057E00008AD09EEFAEFFB12466902587D127151BD
:1057F00012449BE9707FEEFAEFFB1246B7807EA958
:105800000AEEFAEFFB1244E380661258847066E5F4
:105810000A700A125DA87003A3E0697060EEFAEFE7
:10582000FBA90A12446B8048125DA87003A3E069CB
:105830007043125884703EEEFAEFFB124453803DE1
:10584000900EB2126EC46035EEFAEFFB12725C126B
:105850004B7E8029125DA87003A3E0697017EEFAF1
:10586000EFFB1244EF8016EEFAEFFBA90A1244FB9D
:10587000E9F50A8008750A0079011243B1A90A7F87
:1058800006022763EE2417F582EF12696064022294
:10589000EE241D12691B12589A22E0F8A3E0F5834A
:1058A0008882E02274F41224FF74DC122ABD8A0874
:1058B0008B098A828B83A3A3E0F91243698A0A8B3E
:1058C0000BAE0AAF0BEE4F70030259DC85088285E0
:1058D0000983A3A882A983E0C0E0127B1BD0E01259
:1058E0005C6EE064F16033850882850983A3E0641F
:1058F000CD6027850882850983A3E0641A601B8533
:105900000882850983A3E064E9600F850882850920
:1059100083A3E064E16003025AF59006C8E06007E3
:10592000640160030259F58E828F83A3A3A3A3A30E
:10593000A3A3E0540870030259F58E828F83A3A3BA
:10594000A3A3A3A3A3A3A37405F09006C8E06004D7
:1059500064017059850882850983A3E064E9604D7C
:10596000900EB6126EC4600612725C124B7E900EE0
:10597000B8126EC46037900864E0A2E1502F8E82A6
:105980008F83125C1BA3A3A3A3A3126E4E888289EC
:105990008312715E12458BEA4B601285088285097D
:1059A00083A3E0F9900EB8127259124B7E8E828F4B
:1059B00083A3A3A3A3A3A3A3A3A3E0640270108E55
:1059C000828F83A3A3A3A3A3A3A3A3A37406F08599
:1059D0000882850983A3A3E0F9124345124333905B
:1059E00006C8E064027009900F7212715E12429153
:1059F000742402574A790012433FE97003025AF5B2
:105A00009006C8E0600764016003025ABC90086415
:105A1000E0A2E14003025ABC125C27126EC470037C
:105A2000025ABC8E828F8312715E7403122CD0AC2A
:105A300082AD83EA241EF582EB125D9DEA241FF5F8
:105A400082EB127B2112715E1243E1850882850987
:105A500083A3E064E97020125C37122A498508822A
:105A6000850983A3E0F50A780A122A49125C4812D4
:105A700044177402122A72740C122CD0125C11E0BA
:105A8000FAA3E0F5838A82126E5B7408122CD0E0D0
:105A90006004794080027900740E122CD0126E4E90
:105AA000740C122CD012715E12465DE9600E8E826B
:105AB0008F83A3A3A3A3A3A3E04420F0EE2404F5C3
:105AC0000AEF3400F50B8E828F83A3A3A3A3A3A3B5
