:10000000020757020803FFFFFFFFFF02080BFFFF75
:10001000FFFFFF020813FFFFFFFFFF02081BFFFFA8
:10002000FFFFFF020823FFFFFFFFFF02082BFFFF78
:10003000FFFFFF020833FFFFFFFFFF02083BFFFF48
:10004000FFFFFF020843FFFFFFFFFF02084BFFFF18
:10005000FFFFFF020853FFFFFFFFFF02085BFFFFE8
:10006000FFFFFF020863FFFFFFFFFF02086BFFFFB8
:10007000FFFFFF020873FFFFFFFFFF02087BFFFF88
:10008000FFFFFF020883FFFFFFFFFF02088B78FFDF
:10009000FFFF040000000100000000000000060057
:1000A00000000008000074F512058D8908740F55D2
:1000B00008F50A750B00740B780A1206FEEA240094
:1000C000F8EB3480F9E82400E9350BF9E5C7F509C8
:1000D000E508C4540FFAE5C754F84AF5C7740B1283
:1000E000077FE0FAA3E0FB801C88828983E08C8292
:1000F0008D83F088828983A3A882A9838C828D83D3
:10010000A3AC82AD83EAFEEBFFEE24FF1AEF34FFCF
:10011000FBEE4F70D48509C77F0402063B74F712CB
:10012000058DED900109F0ECA3F0A37462F0A374C7
:1001300073F0A3E0541FF0740912077FE0F508A3E1
:10014000E0F509E508333354FC90010EF0740678AD
:1001500008120748E50890010DF090010F7412F0A5
:10016000A37442F075D1FE75D601EA906271F0EB8E
:10017000A3F0906270E0D2E1F0E0A2E740FB7F02E2
:1001800002063B74E912058D74B11206E875080089
:10019000750902750A45750B00780A120737740C49
:1001A00012077F85820A85830B780A120737790147
:1001B00090011D12077312030B74041206B5750A21
:1001C00006750B00780A120737740612077F8582BE
:1001D0000A85830B780A1207377901741412077F96
:1001E000E0F50AA3E0AA0AFBE4FCFD12030B740489
:1001F0001206B57514007515007516007517000206
:1002000002B6750A04750B00780A120737740212D9
:10021000077F85820A85830B780A12073785140CBD
:1002200085150D85160E85170F741412077FE0F5DE
:1002300010A3E0F511E4F512F513780C791012070C
:1002400011900121780C120724AA0CAB0DAC0EAD55
:100250000F7401F912030B74041206B5A808E5091E
:100260005401F9E849701B880A85090B7409780A5A
:10027000120748E50AC333906272F0906270E0D2D0
:10028000E0F0750A01750B00780A12073774021244
:10029000077FAC82AD83AA08AB0912011D7402125C
:1002A00006B5E5082401F508E5093400F5099001D3
:1002B000157814120724740612077F781412067B2F
:1002C0004003020202744F1206B57F1002063BC0C3
:1002D00008C0097C088A088B09740F78081207483F
:1002E000EAC333FAEB33FBE9A2E7500474014AFA9C
:1002F000E508A2E0500874216AFA74106BFBE9C3A8
:1003000033F91CEC70CFD009D0082274F112058D9E
:100310008A088B098C0A8D0BE9FE740F12077FE0A7
:10032000F50CA3E0F50D741112077FE0F50EA3E0C4
:10033000F50FEE6014780E120737780C120737129B
:10034000038674041206B5802F90012578081207E1
:1003500024780E120737AC0CAD0D85080C85090DFD
:10036000AA0CE50D5407FB740B78081206CFA908F8
:100370001200A674021206B57F0802063BC2F98974
:10038000F9A2F950FC2274F112058D8A0C8B0D8CA8
:100390000E8D0FC293790512037DE5F9A2E040F5B9
:1003A000D2930000C293790B12037D850C08850D52
:1003B00009850E0A850F0B741078081206CFA9085C
:1003C00012037D850D09A90912037D850C08A90872
:1003D00012037D790012037D740F12077FE0FEA3E4
:1003E000E0FF741112077FE0F508A3E0F509801122
:1003F000790012037DE5F98E828F83F0A3AE82AF80
:1004000083A808A909E824FFF508E934FFF509E8FD
:100410004970DDD29302037874FF1206E853BEFBE5
:10042000E59DA2E650FA0078F8790100E824FF186B
:10043000E934FFF9E84970F375C600E59E70FC43A6
:10044000BE049062707408F0C29043FE01C29143F2
:10045000FE02C29443FE10438F0175F80075FC0B39
:1004600075FAD843FC2043F10243F4E053F4F1431E
:10047000900EC29143FE0E53F5DFD2FED29174016D
:10048000F5D575D4098029900101E0F8A3E0F9A31E
:10049000E8F0A3E9F075080175090078081207373C
:1004A0007C017D017A227B0212011D74021206B5C5
:1004B00075080875090078081207377C017D017AF4
:1004C000887B0079011200A674021206B590010122
:1004D000E0F8A3E0F9A3E0687003A3E06970090203
:1004E000080074011206B522E84970030205877EF0
:1004F000007F008E0C8E0D8E0E8E0F807190011578
:10050000C082850C08850D09850E0A850F0B9001A8
:10051000117808120724758301D082780812067BAF
:1005200050447508017509007808120737740212E3
:10053000077F85820885830978081207377900AA22
:100540000CAB0DAC0EAD0F12030B74041206B58587
:100550001882851983E0F9EEFAEFFB1202CF8A08C0
:100560008B09AE08AF09900119780C12072490018D
:1005700005780C12067B5085900101E06E7003A394
:10058000E06F70030204871201830204B02518C5CE
:1005900082C0E0E51934FFC583C0E0E518C3958249
:1005A00024F910AF0885831985821880088583197E
:1005B000858218D2AFCEF0A3E520F0A37808E60834
:1005C000F0A3DEFAEFF0A3E58124FBF8E608F0A340
:1005D000E608F0A30808E608F0A3E608F0A31581F2
:1005E0001581D0E0FED0E0F815811581E8C0E0EE7D
:1005F000C0E02212078EB90003020635E490010123
:10060000781179018002F0A3D8FCD9FA900111AADF
:1006100082AB8390008E781979018015E493A3ACA6
:1006200082AD838A828B83F0A3AA82AB838C828D76
:1006300083D8E9D9E7120418120789851983851828
:1006400082E0A3FEE0A3F5207808E0A3F608DFFA35
:10065000E0A3FFE0A3C0E0E0A3C0E0E0A3C0E0E0CF
:10066000A3C0E010AF0885821885831980088582B1
:1006700018858319D2AFD083D08222C008C3E096F8
:10068000F50808A3E096420808A3E096420808A3EC
:10069000E09645087001D3D008222518F58210AFE6
:1006A00008F518400215198008F51840021519D2EE
:1006B000AF85198322C0D0251810AF08F518500255
:1006C00005198008F51850020519D2AFD0D0226064
:1006D00016080808C6C313C618C613C618C613C61C
:1006E00018C613C6D5E0EA22251810AF08F5184041
:1006F0000215198008F51840021519D2AF227004AE
:1007000022600D18C6C333C608C633C6D5E0F41838
:1007100022E627F60809E637F60809E637F608095B
:10072000E637F622E026F608A3E036F608A3E03620
:10073000F608A3E036F62274028000C0E0F404124A
:10074000069AD0E012076622600C08C6C313C618CA
:10075000C613C6D5E0F42275D00075814075180126
:100760007519010205F3CAC0E0E6F0A308DAFAD071
:10077000E0FA22E0FAA3E0FBA3E0FCA3E0FD2225DF
:1007800018F582E43519F5832200000080FB790119
:1007900022FFFFFFFFFFFFFFFFFFFFFFFFFFFFFF46
:1007A000FFFFFFFFFFFFFFFFFFFFFFFFFFFFFFFF59
:1007B000FFFFFFFFFFFFFFFFFFFFFFFFFFFFFFFF49
:1007C000FFFFFFFFFFFFFFFFFFFFFFFFFFFFFFFF39
:1007D000FFFFFFFFFFFFFFFFFFFFFFFFFFFFFFFF29
:1007E000FFFFFFFFFFFFFFFFFFFFFFFFFFFFFFFF19
:1007F000FFFFFFFFFFFFFFFFFFFFFFFFFFFFFFFF09
:1008000002132B020A65FFFFFFFFFFFFFFFFFFFF41
:10081000FFFFFFFFFFFFFFFFFFFFFFFFFFFFFFFFE8
:10082000FFFFFFFFFFFFFFFFFFFFFF021030FFFF93
:10083000FFFFFF020EDBFFFFFFFFFFFFFFFFFFFFDA
:10084000FFFFFF020FEBFFFFFFFFFFFFFFFFFFFFB9
:10085000FFFFFF020999FFFFFFFFFFFFFFFFFFFF01
:10086000FFFFFFFFFFFFFFFFFFFFFF020EB5FFFFD0
:10087000FFFFFFFFFFFFFFFFFFFFFFFFFFFFFFFF88
:10088000FFFFFF0209F9FFFF13201320FFFFFFFF07
:10089000785634120100000001FF01010503010F29
:1008A00010FEFF231D231D231D231DD91BD31B2336
:1008B0001DFA3100000000CE3000000000FF0000F3
:1008C00000FF000100000F1F000000000000C91F12
:1008D000000000000000F11E000000000000000009
:1008E0000000000000000000FFFF010100590500AA
:1008F0000000E803D205E80364006400B8010202C6
:10090000000800000502070401051E02051E020A78
:100910000A0103B80B02803E0102FEFFE8030A054C
:100920000001FFFF010A1401E00020FD000206FFA4
:10093000FFFFFFFFFFFFFFFFFFFFFFFFFFFFFF02C4
:100940000119000E0401000000000000015C830E8C
:10095000070F3F10000208760F00000001000000A2
:1009600001892C8F2C000000000000952C00000055
:1009700000000000000000000006001020202020E1
:1009800020202020202020202020202001080401D9
:10099000000000023D83015583C0E074F1120C7D1C
:1009A000A2AFE433FED2AFE5A7FFE5A1F5085FF5FE
:1009B0000974105509600612281575A1EF740855C1
:1009C00009600812281B75A1F78024E508A2E092AF
:1009D000F0EFA2E082F05017906198E0F89008DE06
:1009E000E0C398A2D265D0335002E8F075A1FEEEC4
:1009F000A2E092AF7F02020D34C0E074F2120C7DCF
:100A0000A2AFE433FED2AF9061A4E0F8759B00E59D
:100A10009158540860087591F712286F8023E5916A
:100A200058541060087591EF1228758014E591A252
:100A3000E092F0E8A2E082F05007E0C2E0F0122974
:100A4000B99061A3E0F8E5E9585404600E12298FCB
:100A500075E9FB906193E0A2E640F2EEA2E092AF6E
:100A60007F01020D34C0E074F2120C7DA2AFE433BA
:100A7000FED2AF9061A5E0F8E5BF5854046006755A
:100A8000BFFB1229D180D4C3E498F8E499F9120A83
:100A9000C88026C3E49AFAE49BFBE920E7E9120A3E
:100AA000C8E498F8E499F922C3E498F8E499F912B3
:100AB0000AC8E498F8E499F9C3E49AFAE49BFB22A3
:100AC000EB20E7CFE920E7E0B90010BB0008E88A97
:100AD000F084F8AAF022E4FBC8FA22EB70227B1023
:100AE000C833C8C933C9335007C39AC3DBF2800681
:100AF0009A50012ADBEAC833F4C8C933F4C9FA2290
:100B000075F008E4C833C8C933C933C99AC99B50C2
:100B100004C92AC93BD5F0ECFBC833F4C8E4C9FAD0
:100B200022080808EAC0E0EBC0E086F0E7A4FA1863
:100B30000986F0E7A42AFA180986F0E7A42AFA1829
:100B40000986F0E7A42AFA1986F0E7A4FBE5F02A63
:100B5000FA190886F0E7A42BFBE5F03AFA190886A3
:100B6000F0E7A42BFBE5F03AFA18180986F0E7A4A1
:100B7000C5F02BFBE43AFA1908E7C5F0C6A426F63F
:100B8000E5F03BFBE43AFA1886F0E7A4F6E5F00856
:100B900026F6E43B08F6E43A08F6D0E0FBD0E0FAAB
:100BA00022E4CFC0E0E4CEC0E0E4CDC0E0E4CCC0BD
:100BB000E075F020C3E633F608E633F608E633F6D0
:100BC00008E633F6181818EC33FCED33FDEE33FE6F
:100BD000EF33FFC3EC9709ED9709EE9709EF9719EB
:100BE0001919400FFFEC97FC09ED97FD09EE97FEF0
:100BF000191906D5F0BEECF709EDF709EEF709EF84
:100C0000F7191919D0E0FCD0E0FDD0E0FED0E0FFEC
:100C1000222518C582C0E0E51934FFC583C0E0E590
:100C200018C3958224F810AF08858319858218802F
:100C300008858319858218D2AFCEF0A3E520F0A3F2
:100C40007808E608F0A3DEFAEFF0A3E58124FAF8CD
:100C5000E608F0A3E608F0A3E608F0A30808E60813
:100C6000F0A3E608F0A315811581D0E0FED0E0F8EE
:100C7000158115811581E8C0E0EEC0E022C0D025C5
:100C800018C582C0E0E51934FFC583C0E0E518C38C
:100C9000958224F310AF0885831985821880088512
:100CA0008319858218D2AFC8F0A3E9F0A3EAF0A3B4
:100CB000EBF0A37908E709F0A3D8FAECF0A3EDF084
:100CC000A3EEF0A3EFF0A3D0E0F0A3D0E0F0A3D028
:100CD000E0F0A3E520F0A3E5F0F0A32212138DB914
:100CE0000003020D1EE49003017894790D8002F058
:100CF000A3D8FCD9FA900F94AA82AB839008987875
:100D00000279028015E493A3AC82AD838A828B833F
:100D1000F0A3AA82AB838C828D83D8E9D9E7758250
:100D2000867583C374051210CF75829375832E74F4
:100D3000001210CF851983851882E0C0E0A3E0F986
:100D4000A3E0FAA3E0FBA37808E0F608A3DFFAE04B
:100D5000FCA3E0FDA3E0FEA3E0FFA3E0C0E0A3E06E
:100D6000C0E0A3E0F5D0A3E0F520A3E0A3F5F010E8
:100D7000AF088583198582188008858319858218B4
:100D8000D2AFD082D083D0E0F8D0E03275F0108EB0
:100D90001A8F1B85821F85831E851882851983E023
:100DA000CEA3E0CF851F82851E83EBC9EAC8EDCBB9
:100DB000ECCAC3E833C8E933C9EA33CAEB33CBC35F
:100DC000EA9EF51DEB9FF51CB35004AB1CAA1DEC6D
:100DD00033CCED33CDD5F0DAAE1AAF1B22D083D0B1
:100DE00082ECC0E0EDC0E0E493A3FCE493A3FDED4E
:100DF0004C600D120EF9EC24FFFCED34FFFD80EF8A
:100E0000E493A3FCE493A3FDED4C600D120F96EC6C
:100E100024FFFCED34FFFD80EFD0E0FDD0E0FCE4EA
:100E200093A3C0E0E493C0E022851983851882E093
:100E3000A3FEE0A3F5207808E0A3F608DFFAE0A31C
:100E4000FFE0A3C0E0E0A3C0E0E0A3C0E0E0A3C0F7
:100E5000E0E0A3C0E010AF08858218858319800800
:100E6000858218858319D2AFD083D0820210D5D065
:100E700083D082E9C0E0E493A3C386F0C5F095F087
:100E8000F908E493A386F0C5F095F0700BE493A302
:100E9000C3994005E9048002A3E475F002A4258209
:100EA000F582E5F03583F583D0E0F9E493A3C0E063
:100EB000E493C0E022C0E074F2120C7DA2AFE433F0
:100EC000FED2AFE589A2E150031226B3758900C2B4
:100ED000C5EEA2E092AF7F01020D34C0E074F212C1
:100EE0000C7DA2AFE433FED2AFE58BA2E05003123B
:100EF00026B3758B00C2E880D8C0E0C3E49396089F
:100F00007401939618400FE4936670080874019377
:100F1000661870007019A3A3C3E493960874019334
:100F20009618A3A3400DD0E0D0E0D0E0020E19A3A4
:100F3000A3A3A3A3A3D0E0227404800474028000BE
:100F4000CCC0E0EDC0E0E518C39CCCAD1950011D4C
:100F500010AF068C188D1980068C188D19D2AF121F
:100F60001051D0E0FDD0E0FC2274028000CCC0E043
:100F7000EDC0E0E518C39CCCAD1950011D10AF06C3
:100F80008C188D1980068C188D19D2AF12100ED0C6
:100F9000E0FDD0E0FC22C0E0C0F088F0E493667091
:100FA000080874019366187000A8F0A3A3700BD012
:100FB000F0D0E0D0E0D0E0020E19A3A3D0F0D0E052
:100FC00022D083D082CCC0E0E493A360061210B09C
:100FD0001470FAE493A3600612119E1470FAD0E024
:100FE000FCE493A3C0E0E493C0E022C0E074F212FA
:100FF0000C7DA2AFE433FED2AFC2C0E5D1A2E45073
:1010000003122785EEA2E092AF7F01020D34CAC021
:10101000E0E493A3C582CCC582C583CDC583F0A38C
:10102000C582CCC582C583CDC583DAE5D0E0CA22AE
:10103000C0E0C0D0E8C0E0E9C0E0E5A8D2AFC2C7D8
:10104000A2E7A2E792AFD0E0F9D0E0F8D0D0D0E0AC
:1010500032CAC0E0E0A3C582CCC582C583CDC583BA
:10106000F0A3C582CCC582C583CDC583DAE6D0E0C6
:10107000CA22C008C3E096F50808A3E09642080813
:10108000A3E096420808A3E09645087001D3D00873
:10109000227009080808226016181818C6C333C63B
:1010A00008C633C608C633C608C633C6D5E0EA222A
:1010B000C0E0E493A3D39C5010E493A3C39C400AE4
:1010C000D0E0D0E0D0E0020FDEA3A3A3D0E022C0A6
:1010D0009FF59FE473D09F22D083D082C09FE4937A
:1010E000C0E0740193C0E0740293F59F222518F5C7
:1010F0008210AF08F518400215198008F518400253
:101100001519D2AF851983227404800A74038006EE
:10111000740280027401C0E0F4041210EDD0E012F9
:10112000136822C0D0251810AF08F5185002051911
:101130008008F51850020519D2AFD0D022BB0102A9
:10114000E722C082C08389828A83BB0003E08002D9
:10115000E493D083D082226016080808C6C313C661
:1011600018C613C618C613C618C613C6D5E0EA2299
:10117000C3E0C696F608A3E0C696F608A3E0C696B6
:10118000F608A3E0C696F622251810AF08F5184019
:101190000215198008F51840021519D2AF22C0E0D7
:1011A000E493A36C7009D0E0D0E0D0E0020FDEA39E
:1011B000A3D0E022E066701008A3E066700A08A3DE
:1011C000E066700408A3E06622C3E09608A3E096F8
:1011D00008A3E09608A3E096A2D265D03322E76682
:1011E00070100809E766700A0809E76670040809C4
:1011F000E76622C3E697F60809E697F60809E69738
:10120000F60809E697F622C3E493960874019396CC
:101210000874029396087403939622C3E096F0082C
:10122000A3E096F008A3E096F008A3E096F022E68B
:1012300057F60809E657F60809E657F60809E6578B
:10124000F622E026F608A3E036F608A3E036F60814
:10125000A3E036F622E046F008A3E046F008A3E05B
:1012600046F008A3E046F022E056F608A3E056F662
:1012700008A3E056F608A3E056F622E056F008A3CD
:10128000E056F008A3E056F008A3E056F022E64747
:10129000F60809E647F60809E647F60809E647F6BC
:1012A00022700422600D18C6C333C608C633C6D5E3
:1012B000E0F41822E627F60809E637F60809E637CB
:1012C000F60809E637F622E026F008A3E036F00833
:1012D000A3E036F008A3E036F022E4C396F608E473
:1012E00096F608E496F608E496F622600D08C6A283
:1012F000E713C618C613C6D5E0F322C6F4C608C65F
:10130000F4C608C6F4C608C6F4C622C3E7960809A0
:10131000E7960809E7960809E79622C3E09608A32E
:10132000E09608A3E09608A3E0962275D0007581A8
:101330004075180175190300020CDCE0F608A3E003
:10134000F608A3E0F608A3E0F622600C08C6C31373
:10135000C618C613C6D5E0F422E6F008A3E6F008E6
:10136000A3E6F008A3E6F022CAC0E0E6F0A308DA9C
:10137000FAD0E0FA22E0FAA3E0FBA3E0FCA3E0FD50
:1013800022EAF0A3EBF0A3ECF0A3EDF022E5C754C2
:10139000F84401F5C77901222518F582E43519F5DD
:1013A0008322C2AF75D69F020000221210D81AAC59
:1013B000021210D816AD021210D86CAD021210D85D
:1013C000AAAD021210D8D4AD021210D852AE021239
:1013D00010D8ABAE021210D80CAF021210D87BB1ED
:1013E000021210D845B3021210D809B4021210D854
:1013F00053B5021210D836B8021210D82FBB021201
:1014000010D83EBB021210D8DABB021210D822BC90
:10141000021210D89BBC021210D82ABF021210D898
:101420006FC0021210D81CC1021210D8ACC1021237
:1014300010D8D0C1021210D882C2021210D84FC3E5
:10144000021210D818C5021210D856C5021210D8B0
:10145000CDC5021210D82CC7021210D8D9C702125B
:1014600010D81AC8021210D832C8021210D8E4C814
:10147000021210D8AACB021210D83ECD021210D8F8
:1014800062CD021210D880CD021210D869CE02129D
:1014900010D826D2021210D84F35001210D861355C
:1014A000001210D8B935001210D81F36001210D80B
:1014B000A936001210D86C37001210D8E537001288
:1014C00010D8FE37001210D82438001210D8433834
:1014D000001210D88138001210D8D638001210D857
:1014E000FD38001210D85A39001210D8213A0012D3
:1014F00010D8BA3A001210D83D3B001210D8053C63
:10150000001210D84E3C001210D86A3C001210D8BD
:101510009C3C001210D84A3E001210D8163F001210
:1015200010D83B3F001210D8683F001210D8913FEE
:10153000001210D8A03F001210D8AB3F001210D8F4
:101540005640001210D8BD40001210D84041001281
:1015500010D84841001210D85042001210D88342CF
:10156000001210D84543001210D80144001210D8C0
:101570003344001210D89944001210D8AA44001223
:1015800010D81D45001210D8B545001210D80E46CF
:10159000001210D8EC46001210D81147001210D8D3
:1015A0002F47001210D84247001210D89A47001255
:1015B00010D8DB47001210D8E847001210D8F147C6
:1015C000001210D8FC49001210D8504B001210D84D
:1015D000604B001210D8994C001210D8004D001228
:1015E00010D8424D001210D87E4D001210D8A64ED1
:1015F000001210D81A51001210D82E51001210D813
:101600003851001210D84251001210D84C5100121B
:1016100010D86551001210D86F51001210D87951AE
:10162000001210D88351001210D8AB51001210D8FC
:10163000F951001210D80452001210D8285200128A
:1016400010D84C52001210D8BC52001210D80853B7
:10165000001210D82453001210D88A53001210D848
:10166000D153001210D81D54001210D88854001203
:1016700010D83855001210D80B57001210D87957CF
:10168000001210D8B658001210D8DC58001210D82A
:101690004F5A001210D8F25D001210D8EC5F001201
:1016A00010D8CC61001210D86562001210D899646D
:1016B000001210D83C65001210D88665001210D8B0
:1016C0000A66001210D82266001210D85F68001255
:1016D00010D8A469001210D8036A001210D89C6AAE
:1016E000001210D86E6C001210D8B06D001210D815
:1016F000CF6D001210D8246E001210D8256F001282
:1017000010D84D6F001210D8B06F001210D8A8700A
:10171000001210D82471001210D84E72001210D886
:10172000B972001210D8F773001210D8597600124F
:1017300010D88A76001210D83579001210D887791F
:10174000001210D8457A001210D8017B001210D870
:10175000657B001210D8267C001210D8C87C0012BD
:1017600010D82D7D001210D86C7D001210D89D7DF0
:10177000001210D8077F001210D86D83011210D804
:10178000A583011210D87E86011210D8CA860112D4
:1017900010D8B487011210D81888011210D878898F
:1017A000011210D8578C011210D89A8D011210D83E
:1017B0009498011210D82999011210D8269C011270
:1017C00010D82B9D011210D88E9D011210D8D99ED1
:1017D000011210D859A1011210D856A3011210D825
:1017E000E3A3011210D8BFA4011210D857A501120B
:1017F00010D861A5011210D88FA5011210D844A6E7
:10180000011210D822A7011210D8FEA7011210D879
:101810005FA8011210D888A8011210D8B5A801122B
:1018200010D8E6AA011210D8C5AB011210D809AC25
:10183000011210D874AC011210D833AD011210D8B7
:1018400065AD011210D8ACAD011210D8DFAD011298
:1018500010D834AE011210D889AE011210D88EAE55
:10186000011210D8E2AE011210D82AAF011210D81E
:101870002EB0011210D893B0011210D8EFB001129F
:1018800010D860B1011210D830B4011210D832B59E
:10189000011210D89FB6011210D88EB9011210D8BB
:1018A00035BA011210D883BC011210D826BD01121E
:1018B00010D864BD011210D846BF011210D859BF0C
:1018C000011210D862BF011210D86BBF011210D8DC
:1018D00080BF011210D89FBF011210D879C1011228
:1018E00010D8CEC1011210D8D8C1011210D809C227
:1018F000011210D86BC3011210D8BCC3011210D84A
:1019000067C4011210D885C5011210D830C6011263
:1019100010D84BC7011210D872C8011210D875C95F
:10192000011210D88CC9011210D8C9C9011210D8DF
:10193000D3C9011210D8DEC9011210D8FCC9011296
:1019400010D83ECA011210D89BCA011210D8C0CAC2
:10195000011210D8DACA011210D859CB011210D8CE
:1019600096CB011210D8CBCC011210D81DCD01128C
:1019700010D837CE011210D85ECE011210D8F2CE98
:10198000011210D86DCF011210D8BDD0011210D89D
:10199000F0D1011210D8A2D2011210D86DD30112C9
:1019A00010D812D4011210D87CD4011210D831D51D
:1019B000011210D885D5011210D8E3D5011210D824
:1019C000AED6011210D8D1D6011210D890D701127C
:1019D00010D8B4D7011210D8D6D7011210D837D8E2
:1019E000011210D877DA011210D861DB011210D879
:1019F0000CDC011210D831DE011210D87FDE01128A
:101A000010D8C2DE011210D81ADF011210D878DF08
:101A1000011210D8A5DF011210D8C9DF011210D8A9
:101A2000FCDF011210D826E0011210D86DE001127F
:101A300010D8C2E0011210D81EE1011210D81BE22A
:101A4000011210D87FE3011210D8BDE3011210D8A3
:101A5000E6E3011210D875E4011210D8BFE40112B8
:101A600010D8E3E4011210D833E5011210D84EE586
:101A7000011210D805E6011210D83EE6011210D866
:101A800096E6011210D8ECE6011210D8F0E9011226
:101A900010D823EA011210D8E1EA011210D8E9EBBC
:101AA000011210D872EC011210D84CBE041210D8DA
:101AB00084BE041210D8A5BE041210D8E7BE0412CA
:101AC00010D849BF041210D853BF041210D863BFF6
:101AD000041210D89ABF041210D85CC3041210D894
:101AE0001DC5041210D83FC7041210D8FEC7041237
:101AF00010D8CBC8041210D85680031210D8998081
:101B0000031210D85981031210D87882031210D80A
:101B10009F83031210D85A85031210D8CD85031263
:101B200010D89886031210D8A987031210D81088ED
:101B3000031210D84C88031210D8AB88031210D8A7
:101B4000E488031210D83989031210D8C28903120D
:101B500010D8678A031210D8388B031210D8128C51
:101B6000031210D89C8C031210D8C28C031210D808
:101B7000EF8C031210D8298D031210D8298E03126E
:101B800010D8398E031210D8898E031210D8968E71
:101B9000031210D8AB8E031210D8B48E031210D8D3
:101BA0000E8F031210D8708F031210D8BA8F031241
:101BB00010D8D58F031210D8FC8F031210D81990AB
:101BC000031210D82590031210D8CE91031210D80A
:101BD000E791031210D86D92031210D8809203126D
:101BE00010D89292031210D83E93031210D8A994E1
:101BF000031210D86096031210D8E696031210D87C
:101C0000E896031210D85097031210D86E9703125B
:101C100010D80498031210D84198031210D8449891
:101C2000031210D86F98031210D8CC98031210D852
:101C3000F098031210D80E99031210D85C99031271
:101C400010D8B59A031210D80D9B031210D85A9BC6
:101C5000031210D8E19B031210D8099C031210D86C
:101C60003F9C031210D84E9C031210D8AC9C031258
:101C700010D81D9D031210D85A9D031210D8959D9F
:101C8000031210D8C09D031210D8DA9D031210D889
:101C9000F49D031210D8C89E031210D8D29E0312CE
:101CA00010D80E9F031210D81E9F031210D87E9FCB
:101CB000031210D8929F031210D89CA0031210D8C0
:101CC000B1A0031210D856A1031210D8D2A103124A
:101CD00010D875A2031210D881A2031210D8C7A37E
:101CE000031210D8E3A3031210D83BA4031210D898
:101CF00077A4031210D891A4031210D8F3A40312EE
:101D000010D892A5031210D8DDA5031210D829A867
:101D1000031210D8D0A8031210D86CA9031210D83F
:101D200092AB031210D8AAAB031210D8ADAB0312BA
:101D300010D8B9AB031210D8CDAB031210D8D5AB65
:101D4000031210D815AC031210D80EAD031210D820
:101D500091AD031210D813AE031210D88DAE03123A
:101D600010D85FAF031210D881AF031210D81DB086
:101D7000031210D829B0031210D854B0031210D88F
:101D800057B0031210D8C6B0031210D829B20312EC
:101D900010D840B3031210D8CBB3031210D808B533
:101DA000031210D8DAB5031210D80BB6031210D8EC
:101DB00037B6031210D840B6031210D86FB603120C
:101DC00010D81FB7031210D8D9B7031210D84DB8C6
:101DD000031210D8E9B8031210D871B9031210D841
:101DE000A7B9031210D8ECB9031210D879C904129C
:101DF00010D8CCC9041210D809CA041210D859CA74
:101E0000041210D8DDCA041210D8EFCC041210D876
:101E1000E1CE041210D80DD2041210D83FD2041211
:101E200010D85FD2041210D8CCD2041210D8FCD231
:101E3000041210D82FD3041210D866D3041210D86D
:101E4000C4D3041210D810D4041210D88CD40412A5
:101E500010D8B3D4041210D8E7D4041210D847D63F
:101E6000041210D863D6041210D8A8D6041210D8C1
:101E70002FD7041210D878D7041210D809D804121A
:101E800010D8EFD8041210D842D9041210D8A7D90C
:101E9000041210D828DA041210D87EDA041210D8EE
:101EA000C7DA041210D864DB041210D85BDC041209
:101EB00010D8A9DC041210D8F7DC041210D819DDF0
:101EC000041210D8B4DD041210D84DDE041210D85C
:101ED0007A7F001210D84FDB051210D86DDB051287
:101EE00010D8D2DB051210D87ADC051210D8D1DF59
:101EF000051210D86AD7051210D892D7051210D83B
:101F000089D8051210D8DCD2051210D821D40512B8
:101F100010D89CDE041210D84BDF041210D86BDFEF
:101F2000041210D88BDF041210D89FDF041210D8CF
:101F300009E0041210D839E0041210D8BDE10412EF
:101F400010D866E2041210D851E3041210D8A0E3AE
:101F5000041210D8E3E3041210D870E4041210D86D
:101F6000BAE4041210D8DBE4041210D844E50412D9
:101F700010D879E5041210D8EBE5041210D885E7E3
:101F8000041210D856E8041210D898E8041210D899
:101F9000F2E8041210D85CCF051210D87DCF0512DC
:101FA00010D8B3D0051210D8DDD0051210D831C624
:101FB000051210D8ABC6051210D8B6C6051210D837
:101FC000D7C6051210D8B3EC011210D8B6EC011226
:101FD00010D888ED011210D8B3ED011210D8F0ED31
:101FE000011210D815EE011210D836EE011210D8D9
:101FF0006AEE011210D8A2EE011210D8BAEF011247
:1020000010D801F0011210D821F0011210D88CF074
:10201000011210D829F1011210D855F1011210D86F
:10202000CEF1011210D842F3011210D8E3F30112DD
:1020300010D8DFF4011210D8EBF5011210D8C0F659
:10204000011210D8E9F6011210D845F7011210D884
:102050000CF8011210D83AF8011210D8B8F9011290
:1020600010D83DFA011210D888A5021210D806E93E
:10207000041210D810E9041210D85CE9041210D828
:10208000CAE9041210D8EBE9041210D802EA0412CB
:1020900010D8A2EA041210D87AED041210D883EDF9
:1020A000041210D8D0ED041210D8F9ED041210D893
:1020B00003EE041210D86FEE041210D801EF0412D0
:1020C00010D83DEF041210D878EF041210D873AA7C
:1020D000021210D80AF0041210D889F0041210D895
:1020E000D3F0041210D814F1041210D84BF10412DA
:1020F00010D85DF1041210D86FF1041210D88EF1CF
:10210000041210D897F1041210D85FF2041210D8FC
:102110009FF2041210D8C8F2041210D8E3FA011288
:1021200010D826FC011210D84CFC011210D85DFC0E
:10213000011210D87CFE011210D89BFE011210D89B
:10214000DCC8051210D812C9051210D85DC90512D5
:1021500010D8A8CA051210D807EB031210D83BEC10
:10216000031210D877EC031210D82FEE031210D8F8
:1021700069EE031210D8E2F0031210D822F1031214
:1021800010D8B6F2031210D856F3031210D8B8F3D1
:10219000031210D845F4031210D87DF4031210D89E
:1021A000BDF4031210D84EF6031210D8F6F703123E
:1021B00010D853FA031210D881FA031210D8ADFACE
:1021C000031210D8B6FA031210D811FB031210D85C
:1021D000A7FB031210D804FF031210D889FF0312C3
:1021E00010D8E0FF011210D8F6FF011210D8C4E297
:1021F000051210D8D6AA051210D8EBAA051210D8CD
:102200009EAB051210D8DEAB051210D8F7AB051245
:1022100010D832AC051210D87FAC051210D8B1AC72
:10222000051210D8F3AC051210D8FEAE051210D866
:1022300006DA051210D83CDA051210D858DA051261
:1022400010D89ADA051210D8AADA051210D842DB93
:10225000051210D84CDB051210D821BA031210D881
:102260007CBA031210D820BB031210D82DBC031265
:1022700010D80ABD031210D8AEBD031210D8FBBD92
:10228000031210D851BE031210D8A6BE031210D8E4
:102290001FBF031210D837BF031210D8E9C10312B1
:1022A00010D888C2031210D8BFC2031210D808C3B6
:1022B000031210D8F4C4031210D87EC5031210D82C
:1022C00065C6031210D8A5C6031210D8C4C60312DF
:1022D00010D80FC7031210D825C7031210D832C761
:1022E000031210D862C7031210D874C7031210D893
:1022F00061C8031210D86CC8031210D8C4C80312E6
:1023000010D827C9031210D87CC9031210D88BCA61
:10231000031210D8F1CC031210D821CD031210D81B
:10232000ACCD031210D833CE031210D801CF031254
:1023300010D83BCF031210D8A9CF031210D859D010
:10234000031210D883D0031210D88DD0031210D8E6
:1023500097D0031210D89AD0031210D8F7D00312D6
:1023600010D830D1031210D843D1031210D86FD136
:10237000031210D8AAD1031210D8ADD1031210D86D
:10238000F7D1031210D80AD2031210D825D20312A3
:1023900010D855D2031210D872D2031210D8BBD263
:1023A000031210D8F1D2031210D8F1D3031210D8AF
:1023B0006FE3051210D887E3051210D800800512CC
:1023C00010D84F80051210D80E82051210D8E7835E
:1023D000051210D82B84051210D87E85051210D84E
:1023E000C986051210D8EB86051210D8358705125C
:1023F00010D8B787051210D80080041210D8238097
:10240000041210D81481041210D89C81041210D820
:10241000FA81041210D84182041210D8BA82041230
:1024200010D84783041210D8C083041210D8018436
:10243000041210D85188041210D8C88A041210D877
:10244000018B041210D8488B041210D8F88C041297
:1024500010D8FB8C041210D8E28D041210D8218FF2
:10246000041210D86C91041210D8FA91041210D8EA
:102470002993041210D8B693041210D88A94041227
:1024800010D8FD94041210D81FAA041210D8D4AA90
:10249000041210D859AB041210D868AB041210D82B
:1024A000F1AB041210D829AC041210D825AD0412D7
:1024B00010D84EAD041210D8EFAD041210D861AE92
:1024C000041210D8CCAE041210D82BAF041210D8BE
:1024D0000BB2041210D8B3B2041210D80EB3041207
:1024E00010D8D1B4041210D87BB5041210D81FB67E
:1024F000041210D880B6041210D8FBB6041210D8FB
:102500003BB8041210D820B9041210D8CEB9041266
:1025100010D8DDBA041210D881BB041210D8EDBB5C
:10252000041210D8F0BC041210D89195041210D8DF
:102530000096041210D84E96041210D896960412E3
:1025400010D8E396041210D83D97041210D87E9745
:10255000041210D82898041210D89B98041210D88E
:102560001199041210D8409A041210D86C9A0412CF
:1025700010D88B9B041210D89C9B041210D8B29BCD
:10258000041210D83D9C041210D86B9C041210D871
:102590002D9D041210D84F9D041210D8729D041264
:1025A00010D88C9D041210D8AE9D041210D8949EA1
:1025B000041210D8F69E041210D899A0041210D854
:1025C000F7A0041210D816A1041210D873A2041296
:1025D00010D818A3041210D854A3041210D8C2A300
:1025E000041210D8C8A4041210D8F9A5041210D8E7
:1025F00006A7041210D814A7041210D813A80412A6
:1026000010D8BBA8041210D838A9041210D84DA9AC
:10261000041210D8E3A9041210D8E3BA051210D896
:102620001EBB051210D8DDBB051210D843BC051225
:1026300010D8B4BC051210D839BD051210D811C479
:10264000051210D890C5051210D8BCE0051210D89C
:10265000CDE0051210D86DE1051210D82DD105126C
:1026600010D83BD1051210D8E6FF031210D827E28C
:10267000051210D837E2051210D852E2051210D810
:10268000BAE2051210D8CDDD051210D852DE0512BF
:1026900010D8B8DE051210D878D4051210D89AD404
:1026A000051210D800D5051210D820D5051210D863
:1026B00066D5051210D8C1D5051210D804FB021238
:1026C00010D819FB021210D837FC021210D87AFC6D
:1026D000021210D894FC021210D812FD021210D867
:1026E00032FE021210D8A6FE021210D8C0FE02124C
:1026F00010D8D7FE021210D8EAFE021210D804FF3A
:10270000021210D81BFF021210D841FF021210D87B
:1027100092FF021210D857FC041210D865FC041264
:1027200010D8DFFC041210D8C3FD041210D89AFF91
:10273000041210D8859D051210D84C9F051210D890
:10274000949F051210D806A0051210D892A0051269
:1027500010D89DA0051210D84EA1051210D8C7FFA1
:10276000021210D88F93051210D8FC93051210D8BE
:10277000B394051210D82095051210D83F96051273
:1027800010D8B797051210D81798051210D86C9862
:10279000051210D87598051210D88498051210D813
:1027A0009798051210D8AD98051210D8B698051252
:1027B00010D8E787051210D80F88051210D82C8B77
:1027C000051210D86B8B051210D8AD8B051210D8DE
:1027D000C18B051210D8DA8B051210D8F28C0512B5
:1027E00010D8A48D051210D8BE8D051210D8FFD5B3
:1027F000051210D823D6051210D83CD6051210D8D1
:102800007BD6051210D8AED6051210D8DED605122A
:1028100010D846D7051210D849D7051210D853D76B
:10282000051210D860D7051210D8D9BD051210D8DE
:1028300001BE051210D842BE051210D860BE0512A6
:1028400010D87BBE051210D8E3BE051210D8EFBE1B
:10285000051210D84EBF051210D87ABF051210D835
:1028600089BF051210D8ADBF051210D86EC0051271
:1028700010D87BC0051210D88CC0051210D801E406
:10288000051210D819E4051210D80D99051210D8A8
:102890007A9A051210D8809A051210D8979A0512C4
:1028A00010D8B89A051210D8CE9A051210D8E29A0C
:1028B000051210D8619B051210D8C69B051210D8BE
:1028C0005C9C051210D8359D051210D8459D051247
:1028D00010D8549D051210D88EE1051210D8B2E11F
:1028E000051210D8DAE1051210D802E2051210D84C
:1028F0003CCD051210D863CD051210D881CD05123C
:1029000010D8F3CD051210D8BAC0051210D8D3C014
:10291000051210D8EAC0051210D8F3C0051210D85D
:1029200011C1051210D81BC1051210D825C10512FE
:1029300010D838C1051210D8BFC1051210D834C242
:10294000051210D862C2051210D8B3C2051210D8F1
:10295000FFC2051210D81AC3051210D824C30512DD
:1029600010D835C3051210D87BC3051210D81EE34A
:10297000051210D8F6F2041210D822F3041210D85F
:1029800040F3041210D853F3041210D86EF304125B
:1029900010D8CDF3041210D8FBF3041210D8EBF7C3
:1029A000041210D83DF9041210D86FF9041210D88F
:1029B000DBF9041210D840FB041210D868FB041293
:1029C00010D87DFB041210D88DFB041210D8CDFB5B
:1029D000041210D819FC041210D829FC041210D8C3
:1029E00095DC051210D8A5DC051210D8C3DC051241
:1029F00010D8DEDC051210D805DD051210D826DD52
:102A0000051210D840DD051210D878DD051210D857
:102A10009BDD051210D8BDE3051210D80EB70512C4
:102A200010D815B7051210D86BB8051210D89BB87E
:102A3000051210D8CBB8051210D8FEB8051210D860
:102A400010B9051210D84CB9051210D8B2B9051238
:102A500010D8EEB9051210D835BA051210D862BADE
:102A6000051210D88EBA051210D80FCB051210D847
:102A700032CB051210D823CC051210D80CCD05127C
:102A800010D80FCD051210D8D1DE051210D830DFC6
:102A9000051210D86EDF051210D8AFDF051210D85E
:102AA00044D2021210D850D2021210D8ADD2021263
:102AB00010D8C5D2021210D86BD3021210D8D6D3B8
:102AC000021210D885D4021210D80DD5021210D8D7
:102AD00008D7021210D8F6D8021210D84DDA021216
:102AE00010D801DB021210D8C9DF021210D8A7E0FB
:102AF000021210D845E1021210D86AE1021210D871
:102B000013E2021210D830E2021210D851E202127F
:102B100010D8B8E2021210D8EEE2021210D857E430
:102B2000021210D878E4021210D8F4E4021210D87D
:102B30009AE5021210D8E5E5021210D85EE60212FC
:102B400010D803E7021210D86CE7021210D8D4E7AD
:102B5000021210D878E8021210D8E5E8021210D854
:102B600021E9021210D889E9021210D8C5EA02122E
:102B700010D870EB021210D81BEC021210D883EDA3
:102B8000021210D80FEE021210D87EEE021210D8E8
:102B900093F0021210D8C1F1021210D8F3F1021210
:102BA00010D8CEF3021210D8C0F5021210D8F0F6E9
:102BB000021210D890A6051210D8BCA6051210D883
:102BC00025A7051210D896A8051210D8B9A8051285
:102BD00010D80BAF051210D8D5AF051210D834B0ED
:102BE000051210D853B0051210D820B1051210D814
:102BF000BAD8051210D8FED8051210D849D9051236
:102C000010D83AD5031210D8A1D6031210D843D940
:102C1000031210D8A2D9031210D87FDA031210D8E9
:102C200017DC031210D8EBDC031210D854DD0312AA
:102C300010D822DE031210D8E1E0031210D842E2CD
:102C4000031210D8E2E3031210D8D7E6031210D80B
:102C5000BBE8031210D8B4E9031210D828EA031213
:102C600010D8D88D051210D8588E051210D8D18FD3
:102C7000051210D81791051210D82E91051210D8F0
:102C80007A91051210D89891051210D8F791051273
:102C900010D80B92051210D82792051210D83F9227
:102CA000051210D82DB3051210D84BB3051210D849
:102CB0008FB3051210D8B5B3051210D8DCB30512C6
:102CC00010D8F4B3051210D80CB4051210D824B4DF
:102CD000051210D8C6B4051210D804B5051210D8C4
:102CE00018B5051210D83BB6051210D844B6051217
:102CF00010D84DB6051210D856B6051210D860B6C9
:102D0000051210D825A2051210D813A6051210D846
:102D100021A6051210D826A6051210D875E40512B2
:102D200010D83FE4051210D8A1E4051210D8C9E468
:102D3000051210D8F3A3021210D87AA3021210D8E9
:102D40002CA3021210D857A2021210D81EA20212EF
:102D500010D8CDA1021210D852A0021210D8D49FC0
:102D6000021210D80A9F021210D8F29D021210D837
:102D7000969D021210D8709D021210D8AC9C0212BF
:102D800010D8EF9A021210D88B9A021210D85C9ABF
:102D9000021210D8599A021210D82C99021210D887
:102DA0001398021210D8C896021210D8EF9502128A
:102DB00010D86B95021210D87294021210D8CF93CB
:102DC000021210D81693021210D843AA021210D879
:102DD00017AA021210D8F3A9021210D8DFA9021202
:102DE00010D805A9021210D8D492021210D83C9221
:102DF000021210D8FB91021210D89E91021210D824
:102E000036A8021210D86B91021210D8FF9002124D
:102E100010D8CA90021210D86B90021210D80EA6C9
:102E2000021210D8D4EF041210D83A90021210D81F
:102E3000EE8C021210D8238C021210D8D88B0212FA
:102E400010D8CC8B021210D82B8B021210D8EF891D
:102E5000021210D83487021210D8C084021210D87F
:102E60007E84021210D84883021210D8DE82021229
:102E700010D80C82021210D86C80021210D8008078
:102E8000021210D83280021210D8E3A5021210D814
:102E900070FA0100000080FBE4738700010020103D
:102EA00024000200F20F25000200F40F26000200A9
:102EB000F60F27000200F80F28000100FA0F290082
:102EC0000100FB0F84000400FC0F860001000010CD
:102ED0002A00010001102B00010002102C0001004B
:102EE00006102D00080054062E00010007102F00C8
:102EF00001000810300001000910310001000A1023
:102F0000320001005C06330001005D063400010060
:102F10000B10360001005E06380001000C1039006D
:102F200001000510830002001E1063000100690605
:102F30006400010003106500010004106D00010031
:102F40006A06710008004C06660001001D1043006F
:102F500001000E10440002000F1045000100111086
:102F600046000200121047000800610648000100F8
:102F700014104B0001001510040001002110A100E5
:102F800001002410370001002310880001002210E6
:102F90003C0001005F063D0001000D1049000200E9
:102FA0001610670001006B064D00020018104E005D
:102FB00001001A104F0002001B103E0001006006C5
:102FC000000000000000000136360101000102018E
:102FD00000010301000104010606050200000701CB
:102FE00000340801000F090401010D0100FF0E0863
:102FF000000017020000190100FF1A0100011B0167
:1030000000FE1C0100081D0200001F01000120013C
:103010000001210200002301000F2402000026010C
:10302000000127010008280200FF2A0100072B01E8
:1030300002402C0100002D0100012E0100012F0192
:1030400000FF30010B1C310800003A0100083B0171
:10305000000F3C0100010000030020016C83000010
:10306000000020016B830000040042015A80000030
:10307000050042019E800000060042017C800000A5
:103080000700200169830000100042037710000050
:1030900011002003870F0000120020038810030096
:1030A00000002103880F0600000020018A0F07009E
:1030B00000003001780F07001000300351100000AD
:1030C00000000000000000000000000000000103FC
:1030D000710301030103010301030103220302033E
:1030E00001031003000300030003000300030003B7
:1030F0000003420300032403060300030003040348
:1031000012032503230325032303040304030003FD
:1031100000030003440300030003230300036503CB
:1031200021003503810300030503000300030003AE
:103130000003250323030304710402046004110443
:103140007004020402040104020410046104000477
:10315000140463047304720462044304000413043B
:103160000604000400040404120400040004000423
:10317000000451046400000400040004440400043A
:1031800000040004000465040004350481046400A4
:10319000050400048304000403027102300160028C
:1031A0001102700201020202020280021002610298
:1031B0003A0041006302730272026202430200029B
:1031C0001302380000020002040212020002000290
:1031D0000002000204020402370037003C024402ED
:1031E000000239000002000265020002350281027D
:1031F0000002050282028302000203007100300116
:1032000060001100700031022003500480001000A3
:10321000610000001400630073007200620043004C
:10322000000013000600000000000400120000006F
:1032300000000000000004000400370037003C02DA
:1032400044000000000000000000650000003500A0
:1032500081000000050000008300000001017101F1
:10326000010101011101010131010101010180018F
:10327000100161013B0014006301730172016201DE
:1032800043010001130106013D0135000401120153
:1032900000010001000100010401040133013301B8
:1032A0003C014401320136000001000165010001CA
:1032B00035008101000105018201830100015D2BC0
:1032C000992B632BAF2A692B9F2B692BAB2B6F2B71
:1032D000AF2A692B9F2B752BAF2A7B2BAF2A812B13
:1032E000AF2A872BAF2A8D2BAF2A932BAF2A000052
:1032F00000000000000000000000000000000000CE
:1033000000000000000000000000000000000000BD
:103310000000000000000000000019000000F001A3
:10332000310F1900010023012C10190002002301A4
:103330003010190003002101390F19000400230186
:103340003410190005002101381019000600200171
:103350003B0F1900070021013C0F19000800210153
:103360003E0F190009002101400F19000A00230136
:10337000420F36000100060000000F0000000000B0
:10338000000000000000000003FFFF00000403FF36
:10339000FF0000FFFF0FF4010005C404032000013B
:1033A00000000B000000000000000003010F0000FF
:1033B00000C72413005B240100C72402000D24036E
:1033C0000013240400192405001F2406002B2411D7
:1033D000004F241400552415003D241F004324FFF2
:1033E000FF000001B31706DD1708D7170BF51710FC
:1033F0002F1702B91705CB1707BF170C9B170DA77F
:1034000017646D15FF000007ECFDFDFDECDCDCCC66
:10341000BCACAC9C9C8C7C7C6C6C5C5C5C4C4C3C1C
:103420003C2C2C1C1C391C691C3F1C451C631C5764
:103430001C511C6F1C751C7B1C871C4B1C331C2DCA
:103440001C03EAF5E5D5D5C5B5A5959585857575B2
:103450006565555545453535252515150500160F66
:1034600000000B150B020002220F3300000E0103B7
:103470000507090B0D0F00020406080A0C0D5A6916
:1034800067426565416C6C69616E63653039231D07
:10349000351D3B1DFD1B411DF71B031C831DA11D7D
:1034A000A71D891D951D8F1D371B311B6D1B731BA0
:1034B000671B1F1B00034D4C4651181A25050200BF
:1034C0000119161816161823030030301718192181
:1034D000301B1D1F30303016181920231A1C1E30C7
:1034E000003C40423A3F3F392F47300C0E020B045C
:1034F0000B0A0708000F771D471D4D1D591D531D51
:103500005D1C811C9B1D8D1C931C0204020101018A
:10351000010902431B491B3D1B791B4F1B611BE823
:1035200003000000BE040A000000003C003C007FD5
:1035300000E8030E000303030809000C0010FF1E3F
:103540001E08050C28010404040C0508150A09C00E
:1035500082C0838A828B83E0D2E7F012234D024D32
:103560003BC082C0837900123593EB1245B1C08213
:10357000C08390033E127AFDD083D082C3E09CA327
:10358000E09D500C1273D5FAA3E012359860010942
:10359000024D3BEA1265FC22FBEA75F00BA4FAA887
:1035A000F075F00BEBA428FB900340E02AF8A3E0B1
:1035B0003B8882F583E0540F2274F7120C118908BE
:1035C000123593EB1265F2E875F00BA4F8ACF075C8
:1035D000F00BE9A42CF9900340E028FEA3E039FFAA
:1035E00074016508600674026508701E8A828B8308
:1035F000123B3574026508701C1239FC1214BFE9C5
:1036000070138E828F83E4F0800BEA2403FCEB12AC
:103610003B291214B9EEFAEFFB12149502512974EA
:10362000F4120C1112552479008E828F83E060769B
:10363000890A890B8065E50A75F00BA4FAA8F07574
:10364000F00BE50B1235A57046E50A75F00BA4F8F2
:10365000AAF075F00BE50B1237C58E828F83E085DB
:103660000882850983124C93123AB1EE2403FCEFD1
:10367000123A0C1214B91252A9126827AA08AB09FF
:10368000121495790190033EE0F50AA3E0F50BE5ED
:103690000A2401F50AE50B3400F50B123A19E50A84
:1036A0009AE50B9B409002577474F5120C11EAFED8
:1036B000EBFF750A01740B121398126C32F509ECCA
:1036C0004D6015EC123594ED12374E79011214A1AC
:1036D000E508450960748021E50845096043123A10
:1036E0001312374E123B111214BFE96401701CEE25
:1036F000FAEFFB1214A7E9F50A850882850983A36E
:103700001255317902AA08AB098011123B2012141C
:10371000BFE9640170347903EEFAEFFB1214A18063
:10372000298E828F83A3E064FE7003A3E0F4700B04
:10373000123B201214BFE96401700CEEFAEFFB1289
:1037400014A7E9F50A8003750A00A90A801912680E
:103750003A126601EE240B12375B221252B4E8F0E3
:10376000A3E9F0221211237F03020E2974F7120C31
:103770001190033E1253CBEA4B602FEA75F00BA475
:10378000FAA8F075F00BEBA428FBEAFEEBFF122180
:10379000499003401253CB900340125DEC6012EE4F
:1037A000FCEFFD790012207D8007900340E4F0A338
:1037B000F0025129F9023F8CF9E875F00BA4F8AA40
:1037C000F075F00BE9123951F508A3E039F509223B
:1037D000EE24010EEF3400FF2290033E126601C377
:1037E000EE98EF9922C082C083EC4D6005122A97B3
:1037F00080097C087D00790012207D024D3B74F623
:10380000120C117900EA4B601878008808127AEAE5
:10381000EB1273CB60047901780808E8C394084080
:10382000EA023F8CC082C0837901EC6A7002ED6BC2
:10383000600EEA4B6009EC4D6005122A9180011977
:10384000024D3B74F7120C1174F3121188ECFEED6B
:10385000FF851882851983E4F004121398EAF0A317
:10386000EB1251121214E37403121398AC82AD835D
:10387000EEFAEFFB1214B9EEFAEFFB1214BF02518D
:103880002474F7120C1174F3121188ECFEEDFF850D
:103890001882851983E4F0EAFCEBFD740312139897
:1038A000AA82AB831214B9851882851983AA82ABC8
:1038B000831214E974011213981265F68E828F83B5
:1038C000124EA274FE68700374FF6960047901806F
:1038D00002790002512474F7120C11EAFEEBFF1278
:1038E000149BE9F50874016508700F123931F4F87A
:1038F0008A828B83E058F012149502451874F712EF
:103900000C11EAFEEBFF7508008E828F83E0601ECB
:1039100012149BE9F508740165087012123931F828
:103920008A828B83E0587006E048F01214950245B5
:10393000181252AD126601123945FAA3E039FB8E16
:10394000828F83E022E875F00BA4F8AAF075F00BE3
:10395000E9A42AF9900340E0282274F4120C118A99
:10396000088B097C007D001239FC1214B9123A133D
:1039700012552D7900850882850983A3E064FE70C5
:1039800003A3E0F460737E007F008064EEFAEF1220
:1039900035986059EEFAEFFBEA75F00BA4FAA8F03F
:1039A00075F00BEBA428FB900340E02AF50AA3E096
:1039B0003BF50B850882850983A3126495850A82ED
:1039C000850B83A3E06A7003A3E06B7020E50A24F3
:1039D00003FAE50B3400FB1214BFE9640170061210
:1039E0003A051214B9123AA37901127AE11237D0CA
:1039F000123A19EE9AEF9B4093025774EA2403FAA5
:103A0000EB3400FB22E50A2403FCE50B3400FD1235
:103A10003B15221265FAE5092290033E12661CC38B
:103A20002274F3120C118A088B098A828B83A312E9
:103A30005531123593EB12552D750C001239FC12CD
:103A400014BFE9640170577E007F00804CEEF8EFF0
:103A5000F9E875F00BA4F8AAF075F00BE9A42AF9BF
:103A6000900340127B5AE0540F602BEEF8EFF912EE
:103A70003945F50AA3E039F50B123A05122A91E906
:103A800064017012850A82850B83123AB1123AA33F
:103A9000750C01127AE11237D01237D940AFA90C58
:103AA000023C001265FAE50912683AEEF0A3EFF065
:103AB00022A31269F9A312375E2274F5120C11EADF
:103AC000FEEBFF8E828F83A31255317C007D0012A6
:103AD0003B201214B9EEFAEFFB12149BE9F50A74BD
:103AE00001650A7029125103F8A3E01237B885085E
:103AF00082F583123B35123B111214BFE964017049
:103B00000DE5082403FCE509123B291214B902371C
:103B10004A123B1522E5082403FAE5093400FB228A
:103B2000EE2403FAEF3400FB223400FDEE2403FA06
:103B3000EF3400FB22A312652E12375E2274F312BB
:103B40000C1174E6121188125524750C01750800C9
:103B5000750900750A00750B00851882851983E4C4
:103B6000F0EE2403FCEF3400FD7403121398AA82D4
:103B7000AB831214B9851882851983AA82AB83128C
:103B800014E9E964017023740B121398123751740D
:103B9000011213981265287003A3E0696054851818
:103BA00082851983858208858309740D1213981202
:103BB0004C92A31265F6740E121398124EA2740D55
:103BC000121398AA82AB831214E3E96401700B7498
:103BD0000D12139885820A85830B780A121110AC96
:103BE00008AD09EEFAEFFB1214AD7402121123E9CD
:103BF000F50CEEFAEFFB1214DDA90C741A12112366
:103C00007F05020E29C082C083780079008008E811
:103C1000240108E93400F9123A19E89AE99B50297D
:103C2000E8FAE9FBEA75F00BA4FAACF075F00BEBDF
:103C3000A42CFB900340E02AFCA3E03B8C82F5839C
:103C4000E0540F70CA790080027901024D3BC082B6
:103C5000C08390354CE49375F016A4FCADF079FF69
:103C60007A507B0912207D024D3B74F6120C11EA4A
:103C7000F87508007D008012ED1241BDC39940091E
:103C8000E0FAE8C39A400205080D90354CE493FA37
:103C9000EDC39A40E3AA087B00023F8C74F0120C3B
:103CA0001174F31211888A0C8B0D8C088D09890A06
:103CB000EC45096016AA08AB091215318A0E8B0F64
:103CC000AE0EAF0FEE4F6003023D957B0080010BFF
:103CD00012681D500F123E2E70F5745028FE7409A4
:103CE00039FF80047E007F00EE4F7003023DE990B3
:103CF0003529123E1060217403650A60067404655C
:103D00000A70157A04790312150790354CE493FC78
:103D1000903529123E165029903527123E10602802
:103D20007401650A60067402650A701C7A027901E2
:103D300012150790354CE493FC903527123E16403F
:103D4000077A007B00023E0D851882851983740175
:103D5000F0121398E50CF0A3E50DF0AC08AD097472
:103D600003121398AA82AB831214B985188285199D
:103D700083AA82AB831214F5740B1213981249F5BF
:103D80008E828F83A3A3A3A3A3A3E4127AF9AA0C20
:103D9000AB0D121A11780074FF250AC39404500267
:103DA00078048E828F83E50CF0A3E50D12646CE538
:103DB0000AF0E88E828F83A3A3A3A3A312683E1206
:103DC0000AC01242228E828F83A3A3A3A3A3A3A31C
:103DD000F01241FB74FF250AC3940250081241E51A
:103DE000123E3B800312420BF07A04790012150751
:103DF0008A0890354CE493FAC3E5089AEB940040A6
:103E000005900F97E4F01218EBEEFAEFFB02570162
:103E1000123E26E84922123E26ECC398F8E499F9AE
:103E2000C3EA98EB9922E493F8740193F922EB75B5
:103E3000F016A4F8A9F0124135F422F9EE2414F595
:103E400082EF12683AE8F0A3E92274F2120C1174BE
:103E5000F31211888A088B09ECFEEDFF750A00EE5B
:103E6000FAEFFB1215318A0C8B0DA80CA90DE8494D
:103E70007003023F0C88828983E065087004A3E028
:103E800065097003023F0C88828983A3A3A3A3E082
:103E9000C39405507788828983126C47123F5A5029
:103EA0002A90352BE493FA740193FB1273A7E9125D
:103EB00053C890352DE493FA740193FBE82414F56C
:103EC00082E91245B1EAF0A3EB80151273A7E9125B
:103ED000552DE82414F582E91245B174FEF0A304CF
:103EE000124C867401F0121398126C47EEFCEFFD31
:103EF0007403121398AA82AB831214B985188285B1
:103F00001983AA82AB831214F5750A01A90A740DEC
:103F100012112302658174F6120C1112152B8A827C
:103F20008B83E5824583600FA3A3A3A3E014C3940E
:103F3000045004790180027900805174F6120C114A
:103F400012152B8A828B83E58245836009123F5EBE
:103F50005004790180027900803288828983A3A38A
:103F6000A3A3E014C394022274F6120C1112152BB1
:103F70008A828B83E5824583600BA3A3A3A3E070B1
:103F80000479018002790080031211237F02020E5E
:103F900029C082C083EAFCEBFD7A007B00024D3829
:103FA000C082C0837C007D00024D3874F5120C1174
:103FB00074F3121188EAFEEBFF8C088D09C3EC94B0
:103FC000F8ED94FF4004EE4F606A750A00801974A2
:103FD000FF6508700474FF6509600B1273AD70040F
:103FE000A3E06509603B050A90354CE493F8E50AC7
:103FF000C3985040E50A123E2F60EBEE4F60D0129E
:10400000403D12139812510E1214EFE960D8740358
:10401000121398AC82AD83EEFAEFFB122A91E9609D
:10402000C5E50A75F016A4F8A9F0745028FA7409C9
:1040300039FB80047A007B00740D02376485188296
:104040008519837401F0745228F582740939F58357
:10405000126601740B2274F4120C1174F31211889D
:104060007508001215318A0A8B0BAE0AAF0BEE4FA2
:10407000601F1240AD12405012139812510E1214CC
:10408000D77C167D0079FFEEFAEFFB12207D7508D4
:10409000017A0479001215071241D55009900F9743
:1040A0007401F01218EBA908740D0257718518827B
:1040B0008519837401F08E828F83A3A32274F71273
:1040C0000C11E9FC74FE6A700374FF6B7D007003D1
:1040D000802C0D12411F5026ED123E2F60F4127EEF
:1040E000ED6A7003A3E06B70E98012ED75F016A421
:1040F000F8A9F0127EE06017E0640360120D12412F
:104100001F5015EC60E512412914C3940450EE12BF
:10411000762D3912649380047AFE7BFF0251299038
:10412000354CE493F8EDC39822ED75F016A4F8A988
:10413000F0124135221243F6E022121543024D3BA4
:10414000C082C083790180F274F0120C118A0A8B4C
:104150000B7A0479011215078A0C8B0DEA450D6064
:1041600043EAC333FAEB33FB1221498A088B09AEC9
:1041700008AF09EE4F60287AFE7BFF12154974FEE6
:104180006A700374FF6B602085088285098312536F
:10419000CBE5082402F508E5093400F50980DC7553
:1041A0000C0080047E007F00850A82850B83E50C6D
:1041B000125302025706E493F8ECC3982275F016E6
:1041C000A4FAABF074542AF58274093BF583E0221B
:1041D0007F07020E298A0A90354CE493FAC3E50A58
:1041E0009AEB94002290352B123E26EE24121237C1
:1041F0005B90352DE493F8740193221252ADE4F0F4
:10420000EE240C124240A3F0A3F022EE241212423C
:1042100019F0EE2414124219221252B474FEF0A3C3
:104220000422E88E828F83A3A3A3A3A3A3A3A31234
:1042300042487401124248A3F0EE24101242402278
:104240001252B4E4F0A3F022127249A3A3A3A32252
:10425000C082C0837D008009EA24FF1AEB34FFFB93
:104260000D12411F5016124129C3940550F2EA4B1A
:1042700070E6745028FA740939FB80047A007B00D8
:10428000024D3B74F7120C1174F31211887E000278
:10429000431BEF75F017A4F8A9F0127EC312661441
:1042A00075F016A4FAABF074502AF58274093BF548
:1042B00083E0687003A3E069603EEF75F017A4F82F
:1042C000AAF0EAF9127EC3391265F4740112139848
:1042D000E0687003A3E069601FEF75F017A4F8EAC7
:1042E000F9742028FC740B39FD7403121398AA8208
:1042F000AB83122A91E96013EF75F017A4F8A9F0C7
:10430000741E28FA740B39FB121A1D0F90353DE408
:1043100093F8EFC39850030242920E90354C127AF4
:104320002F501FEE127EE6F47003A3E0F460EB1250
:10433000403D12139812510E1214EFE960DC7F0019
:1043400080CA02512474F7120C1174F31211889070
:104350000411125DEC70030243EF750800802BE539
:104360000875F016A4F8EAF9746428F58274091245
:104370007A3664FE7003A3E0F4600D746228F5825F
:10438000740939F58312647A050890354C12642B50
:10439000505DE50875F016A4F8AAF0EAF91243F2A8
:1043A000123F6250E3746228F5827409125DE9706D
:1043B000AEE50875F016A4F8EAF9745028F8740907
:1043C00039F9E8FEE9FF12447E12448F122E98124A
:1043D00040AD12405012139812510E1214EFE960C2
:1043E000A77403121398AA82AB8312153D80990219
:1043F00051241243F622745428F582740939F58346
:104400002274F6120C1112152B8A088B09A808A920
:1044100009E8496019123F5A5010E82414F582E95E
:104420001264911273A7E91253C8790180027900CE
:10443000023F8C74F7120C11EAFEEBFF90040B1292
:104440005DEC6037900411125DEC602F9004151242
:104450005DEC60278E828F83127929122E98E97085
:104460001A12447E12448D122E98E96401700C8E4B
:10447000828F83A3A3127916122E980251299035A8
:104480002DE493FC740193FD8E828F8322A3A312EB
:10449000661C90041112792022C082C08390034BC5
:1044A00074C5F0A37417F0024D3B74F7120C11EAB7
:1044B000FEEBFF900381E06408601BE0640460167B
:1044C0008E828F83E05403640170431252A9125804
:1044D000AFE0640670388E828F83A3A3E064FE7021
:1044E00003A3E0F460288E828F83A3A3126C65700F
:1044F00003A3E069700BEE2415F582EF1273CB6015
:104500000512187F8003121885E9F50880037508E5
:10451000C2EEFAEFFB12214FA90802512974F412DE
:104520000C118A088B0912711BFAE82AFAE434008C
:10453000FB1221498A0A8B0BAE0AAF0BEE4F606467
:10454000850882850983E0FC7D00790012207D8E3C
:10455000828F83A3A31255311218BB8E828F83A33F
:10456000A3A3A31253CB850882850983E0F8EE2824
:10457000F8EF3400F91252A9124EA285088285097B
:1045800083A3E0C0E01245ABD0E0F01218CDEE24DA
:104590000E1245AEE91249CBE0C0E0EE24111245FF
:1045A000AED0E0F0EEFAEFFB025774EE240DF58288
:1045B000EF12683A2274F4120C1174E81211888A0E
:1045C000088B098C0A8D0BE9FE900381E06404607E
:1045D00005E06408700479C28031A3780812135989
:1045E000EE9003881247D51213597405121398E9F7
:1045F000F074041213987401F07407121398E4F025
:104600009003817402125112122CCB02576F74F670
:10461000120C1174E8121188EAFEEBFF90034212AB
:104620005DEC60030246D57A077B001221499003B6
:10463000421253CB900342125DEC70030246D18EBE
:10464000828F831213759003431258B2121381EEB6
:104650002404F8EF3400F988828983E0C0E0124630
:10466000DCD0E0F0EE2405FAEF3400FB8A088B0979
:104670008A82F583E0C0E01246DCA3D0E012510844
:10468000C0E0900342E0FAA3E0CA2406F582EA12F1
:1046900045B1D0E0124C93121375851882851983A9
:1046A00012138188828983E0C0E07405121398D0C8
:1046B000E0F0850882850983E0C0E0740412139855
:1046C000D0E0F07407121398E4125112122CCB8030
:1046D000067910800279017418023F89900342E044
:1046E000FAA3E0F5838A82A3A3A3A322C082C08396
:1046F000900342125DEC6010900342126495122107
:104700004F900342E4F0A3F01217EF1219BD024DCF
:104710003B74F7120C11E9900346F07A807B00900D
:1047200003CCE0F91222151215A37900025129C019
:1047300082C083900346E070031224491215A3023D
:104740004D3B74F0120C11900346E0900F967004EC
:10475000E4F0803A7401F0900346E0F46030E0F554
:104760000CE4F50DF50EF50FF09083457808121363
:104770003B780C7908120B21780C1211087A807B97
:10478000009003CCE0F912220974041211237A96E6
:104790007B0F7941122CB302570674F4120C11747A
:1047A000E81211888A088B098C0A8D0B900381749A
:1047B000011247D51213597405121398E9F07404C5
:1047C0001213987403F07407121398E41251121222
:1047D0002CCB02576F124C8A78082274F7120C11F6
:1047E0007C011215BB02512974F7120C117C008058
:1047F000F174F0120C1174FC121188E9851882858D
:104800001983F0EAFEEBFF8C0A127AFA1217E38A98
:10481000088B09EA4509700579CA0249BC8A828B6E
:1048200083A3A3A3A3A3A3A3E064FE7003A3E0F464
:10483000700579C30249BC1218BB8A0C8B0DA80CF9
:10484000A90D850882850983A3A3A3A3A3A3A3E03D
:10485000687003A3E069700579C20249BC90037FC8
:104860001269F5E0687003A3E0696012850882852B
:104870000983124B49AA08AB097950122CB3900353
:104880007F126495121A23850882850983A3A3A346
:10489000A3A3A3A3A3A3A3E004900392124B2D12FE
:1048A0002A9774021213987402F014121398AA82B1
:1048B000AB831219218A0C8B0DAE0CAF0DEE4F702D
:1048C000030249B21249E67406F0A3A882A98390B4
:1048D000036C1269421249C11218B51253C2EE2478
:1048E000131245AE740112682F7440F0A3E412490C
:1048F000CBA3A3A3A3A31249F5EE24111245AEE561
:104900000A125302121579E9F50B60030249B590BA
:1049100003817409F0E5082407FEE5093400FFEE81
:10492000FAEFFB794B122CB38E828F83124B3F90A0
:104930000374E0F8851882851983E068600CE090C4
:10494000037412511279E1122CB3900FF61265F62E
:10495000900FF8E0687003A3E069602890034412A8
:104960004EA2900FF81264951218E51249D5780CF2
:104970001211087A017B009003CCE0F9122209742D
:10498000041211237A007B049003CCE0F912221563
:104990001249D57402780C121091780C1211087A11
:1049A000007B049003CCE0F9122209740412112355
:1049B0008003750B10900540E4F0A90B74040257B6
:1049C00003EE24171268377401F022F085088285FF
:1049D0000983A3A322900FF8126C3285080CF50D01
:1049E000E4F50EF50F221252AD1249ED22126605C2
:1049F000888289832212685A12375E2274F5120C5B
:104A00001174E2121188851882851983ECF0A3EDE8
:104A1000F0EAFEEBFF8908742C121398E0F50A9077
:104A20000381E064046005E06408700579C2024B0C
:104A300028742A121398E064FE7003A3E0F4700552
:104A400079C3024B289003817403125112795012DA
:104A50002CB3742A121398AA82AB83794B122CB30D
:104A6000851882851983124B49E508900374F07408
:104A70002A121398124B3F7429121398E0F50990EB
:104A8000036C124B2D122A9774CE55094480C0E056
:104A9000741D121398D0E0F07401250A900392F06F
:104AA000741A1213987402F0742A1213981265F68D
:104AB0007412121398124B371265F6741B12139866
:104AC000124EA27410121398E508F0740D12139888
:104AD000E4F0900387740FF07A877B037954122CEB
:104AE000B3900386740FF07A867B037947122CB358
:104AF000900386E0C3940F50237410121398E0C003
:104B0000E07402121398D0E0F07404121398740148
:104B1000F004121398AA82AB83122CD774051213D7
:104B200098AA82AB83122CB9741E023764F0EEFC93
:104B3000EFFD7A937B0322E8F0A3E9124C8A22125C
:104B4000660190037512375E2212764212375E229A
:104B500074F7120C11EB900389F01217D10251294E
:104B600074F7120C1174E9121188EAFEEBFF750854
:104B7000008E828F83A3A3A3E0C0E0740612139873
:104B8000D0E01240B5E0C0E07408121398D0E0F015
:104B900074091213987401124C93125DEC600D8E1F
:104BA000828F831264951214BFE970357407121353
:104BB00098E4F01218B574041213981253CB9003B2
:104BC00081E06404700E1218C17402121398EAF0A6
:104BD000A3EB8051740212139874FDF0A374FF804C
:104BE00044851882851983AC82AD838E828F8312AF
:104BF00064951214D18E828F83A3A3A3A3E0703790
:104C000074071213987401124C861265F67402121E
:104C10001398E8F0A3E9124C931265F6740412138A
:104C200098E8F0A3E9F07402121398AA82AB8312F9
:104C30001909E9F50880488518828519831265F6F7
:104C4000740A121398124EA274141213981240B3DD
:104C5000A3E0C0E07415121398D0E0F0741612139C
:104C600098124C92127AFD740C121398AA82AB839C
:104C7000122A97740A121398AA82AB8312232FA9BF
:104C8000087417025126124C8A22F0851882851961
:104C90008322E4F08E828F832274F7120C1174F851
:104CA000121188EAFEEBFF7900900381E06408604E
:104CB00005E06404704585188285198374FDF0A3AE
:104CC00074FFF01218B574021213981253CB7405C6
:104CD000121398124C92A3E0C0E07404121398D0FF
:104CE000E0124C93E0C0E07406121398D0E0F07428
:104CF00007121398E412511212190974080251266E
:104D0000C082C0839003537481F0A37416F09003A3
:104D1000F97463F0A37419F090035774B7F0A37497
:104D200016F09003597481F0A37416F090035B742D
:104D3000BDF0A37416F08003121537D083D0820221
:104D400010D574F4120C1174F91211888A088B09A9
:104D50008C0A8D0B85188285198378081213597473
:104D600004121398E9F07405121398E4F074061213
:104D70001398E412511212158B740702577174F6CE
:104D8000120C118A088B098A828B83127AE4EE4F07
:104D90007003024E9D900314125DEC60158A828BA5
:104DA00083A3A3E0F9EEFAEFFB9003151258B212B9
:104DB0002E988E828F83A3A3A3A3A3A3A3A3A3E070
:104DC00064026003024E4B8E828F83A3A3A3A3A32E
:104DD000A3E054027003024E6F850882850983A305
:104DE000A3E064E97003024E6F8E828F83A3A3A3B6
:104DF000A3A3A3A3A3A3A3E0701490100EE0048EBA
:104E0000828F83A3A3A3A3A3A3A3A3A3A3F08E82B0
:104E10008F83A3A3A3A3A3A3A3A312723DA3A3A3BE
:104E2000A37404F090100F126854124EA27A207BE3
:104E3000009003CCE0F912221BEA4B4C4D700C7A27
:104E4000207B009003CCE0F91220DD8E828F83A3BB
:104E5000A3A3A3A3A3A3A3A3E0640260128E828FE3
:104E600083A3A3A3A3A3A3A3A3A3E06406702E8E8E
:104E7000828F83A3A3A3A3A3A3E0A2E0501F85086E
:104E800082850983A3A3E0F9EEFAEFFB122DCD8E04
:104E9000828F83A3A3A3A3A3A3E054FEF0023F8CBD
:104EA000A3A312375E2274EC120C1174DB1211886A
:104EB000EAFEEBFF8C108D11750E0074051213982D
:104EC000AC82AD831214117412121398E07008743E
:104ED00015121398E060207405121398E0A2E650B2
:104EE0001B8E828F83A3A3A3A3A3A3A3A3A3126454
:104EF00095121939E960057903024FF6740512130A
:104F000098E0540C64047005750D018003750D0064
:104F1000E0A2E55033750E01E50DA2E0402A12181B
:104F2000BB8A088B09A808A909125103687003A35A
:104F3000E069601474051213981250F9126491120A
:104F40002E87E96003024FF47405121398E0A2E67D
:104F500050227406121398E054037018740512134B
:104F600098E0540C640C600CE0540C640860057507
:104F70000C018003750C007405121398E05403F8BB
:104F8000740268700C1250F91264911214230250CA
:104F9000F17401687043E50CA2E050091250F91257
:104FA00064911214177405121398A882A9837403CC
:104FB000121398E8F0A3E91265EC8518828519832D
:104FC000E8F0A3E9125108C0E07402121398D0E08F
:104FD000125112122E6F0250F1E860030250F1904C
:104FE0000369E0640170158E828F83A3A3A3A3A33A
:104FF000A3E070087904122A790250F17424121384
:105000009874021265EC741C121398124EA2E50CEF
:10501000A2E0500E74051213981250F91264911206
:1050200014177439121398780812133BE50DA2E097
:1050300040030250B6EE240FF582EF1273CBC0E0AE
:105040007417121398D0E0F0900316125DEC700301
:105050000250F11218BB8A128B13A812A913741CE8
:10506000121398E0687003A3E06960030250F178BE
:1050700008121108E50EF50878081211148E828FB7
:1050800083A3A3A3A3E0F5087808121114781012E3
:105090001110A90C740D121398AC82AD83742412F4
:1050A0001398AA82AB839003161258AF122E9874ED
:1050B00008121123803B7808121108E50EF50878D4
:1050C00008121114781012111090037F120F3CEE89
:1050D0001273A8EF126C407425121398AC82AD8342
:1050E000740E121398AA82AB831220CB740912118A
:1050F0002374251211230278D8AC82AD83EE126599
:10510000FCEF221252ADE022127245A3E022E8F039
:10511000A3E9124C8AAA82AB832274F7120C1112F3
:1051200022FF8005740D1211237F01020E2974F7EE
:10513000120C1112231180F1C082C08312230B02C2
:105140004D3B74F7120C1112231780DD74F7120C0B
:10515000117409121398E0F508780812111412233B
:1051600023740180C1C082C08312232F024D3BC033
:1051700082C083122335024D3B74F7120C111223A7
:105180003B80A674F7120C11EAFEEBFF890874014C
:105190006508701479001216F990353FE493FC7994
:1051A00000EEFAEFFB12166F02512974F4120C1183
:1051B00074F9121188E9FE8A088B098C0A8D0B7428
:1051C00013121398126495900592125DEC6027EE0D
:1051D000851882851983F0740112139878081213C8
:1051E00059EAF8EBF9740512139812510E900592D2
:1051F0001258AF122E98024D7974F7120C11122327
:105200004702512974F7120C11900F99E0F97E00B2
:10521000800B1273B8540D64017001190E125416EC
:105220005003E970ED02512974F7120C11900F9A96
:10523000E0F97E00800B1273B8548D6481700119FF
:105240000E1254165003E970ED02512974F2120C3B
:1052500011890BE975F006A4240CF508E5F034007B
:10526000F5098A0CE508250CFAE5093400FB122142
:10527000498A0C8B0DAE0CAF0DEE4F6025AC08AD1E
:1052800009790012207D1252A9E50BF0EE2508F8ED
:10529000EF3509F98E828F83A3A3A3A3A3A3A3123F
:1052A0004EA0EEFAEFFB0265811252AD22EE240B06
:1052B0001252B422F582EF3400F5832274F6120CF8
:1052C00011EAFEEBFF12164B900F98E0F8E9C39835
:1052D000400990034F126495121651EE2402F8EF24
:1052E0003400F988088909900351126942900351EA
:1052F000E004125302121657850882850983E002E2
:1053000037B4F0EEFAEFFB22C082C083790090033D
:105310004F8001091264958A828B83E582458370F0
:10532000F2024D3B74F7120C11EAFEEBFFEE4F60F8
:105330005690034F125DEC604E888289837A007B21
:1053400000EE65827003EF6583600FAA82AB831263
:1053500049E9E5824583602F80E790034F12661785
:10536000687002EF698E828F8370081265F6900371
:105370004F8003127651E8F0A3E9125302122E3F38
:10538000EEFAEFFB12214F025129C082C083900335
:105390004F800488828983125DEC600B8882898348
:1053A000127AFDEC4D70EC8A828B83E4F0A3F0E876
:1053B00049600688828983800390034F1253CB0291
:1053C0004D3BEE241AF582EF12683AEAF0A3EBF0B7
:1053D0002274F7120C1190034F80048A828B83127F
:1053E00054114B60257E0080010E12541650ECEED5
:1053F00075F006A4FCADF0EA2CFCEB3DFDEC2410AE
:10540000F582ED12547370E180047A007B00025142
:105410002912661CEA2212547CEEC3982274F712F9
:105420000C117D0080010D125478EDC398503DEDB4
:1054300075F006A4FEA8F0E8FFEA2EFEEB3FFFEEB3
:105440002410F582EF12547370DCED75F006A4FEA3
:10545000E8FFEA2EFAEB3FFBEA1273D0EB1273CBB4
:105460004CF0EA240CFAEB3400FB80047A007B0059
:105470000251291273DE692212547C22EA240BF5B0
:1054800082EB1252B7E0F82274F6120C1112175F79
:105490007B00801CEB75F006A4F8A9F0126949A303
:1054A000126458A3E41256E5A3F0A3126466F00B4D
:1054B00090354312682040DC7A0080188A0875090C
:1054C00000740378081212A112643312698CA3A32A
:1054D000A3E4F00A903541E493F8EAC39840DD79FB
:1054E0000080198908750900740378081212A174E4
:1054F00046127AEB740E350912552F099035391280
:10550000709240DF903545E49390035DF0908345C1
:10551000120F387A107B009003CCE0F912220F743E
:1055200004023F89EAFEEBFFEE1265FCEF3400F562
:105530008374FEF0A304F02274F0120C1174F512BF
:1055400011888A088B09890A8C0BE9A2E05014752E
:1055500008FC7509FFA2E15005D2E402560ED2E321
:1055600002560E1217478A0C8B0DA80CA90D90033A
:1055700072E0687003A3E069600EAC0A7902AA08C1
:10558000AB09121741E9700579000256E1E50AF509
:105590000C780C12111479027CFE7DFFAA08AB096D
:1055A0001216C37401121123E960030256DFE50AE3
:1055B000C2E5F50A9003BFE07056E50AA2E6405046
:1055C0007403121398AC82AD83AA08AB091214CBF2
:1055D000E9703790037F1273EF1219FF8A0C8B0D5D
:1055E000AE0CAF0DEE4F6028EE2402FAEF3400FB54
:1055F0001214BFE9601AEE2402FCEF3400FD7403BC
:10560000121398AA82AB83122A97E50AD2E5F50A0B
:10561000900352E0F50C9003721258A3780E121109
:10562000107D017C00900352E0F9AA0EAB0F121717
:10563000057402121123E9F8900352E004F0E860C7
:10564000030256DFE50AA2E55004740E80027406D8
:10565000C0E07401121398D0E01251121219218A7D
:105660000E8B0FAE0EAF0FEE4F60701249C11218C5
:10567000B51253C21249E67401F07478550AA312A8
:105680006974A3E50C1256E5E508F0E5091256F039
:10569000E4F0E50AA2E550147403121398AC82AD4D
:1056A00083E82406FAE93400FB122A978E828F835E
:1056B000A3A374FDF0A374FFF0E50B6015903540D3
:1056C000E493F8E50BC3985009EE24131245AEE5B8
:1056D0000BF0EEFAEFFB1215798006791080027953
:1056E000C7740B801E1256E922126466A3A3A3227C
:1056F00088828983A3A3A3A31256FC2212699AA3CA
:1057000022740D1211237F08020E2974F4120C1159
:105710007A007B109003CCE0F912221BEA4B4C4D2F
:1057200060089003DE7401F0804390065EE064013F
:1057300090100B7006E0FC79018004E0FC79037A9C
:10574000007B0012166F903531E493F508740193D5
:10575000F509E4F50AF50B78081211087A007B10B8
:105760009003CCE0F912220974041211238005740D
:10577000181211237F04020E2974F0120C118A08EA
:105780008B098C0A8D0B890C121939E960057AFF97
:1057900002586790100AE064026003025893903543
:1057A00037E493F9AA08AB09121771E960030258AC
:1057B0008D7900AA08AB09121747A90C12173B8A6A
:1057C0000E8B0FAE0EAF0FEE4F70030258798E8224
:1057D0008F83A3A3A3A3A3126FA670731264958EE5
:1057E000828F83A3A3A3A3A3A3E05418604D903595
:1057F0003EE4938E828F83A3A3A3A3F074101213AD
:1058000098127AFD74121213981258A3EA650A705E
:1058100003EB650B6012EA6C7002EB6D600AEA65DF
:105820000E7003EB650F701B780E121110AA0AABF5
:105830000B121A3B7402121123800890037112722A
:1058400034A3F074FE6A700374FF6B601E8051A372
:10585000A3A3E06403602A8E828F83A3A3A3A3A3E0
:10586000E0640470067AFE7BFF80358E828F83A30E
:10587000A3A3A3A3E0640270089003BEE0640270D7
:10588000127907AA08AB09121771E96006AA08ABDA
:1058900009800DAA08AB099003531258AF122E9835
:1058A000025706E0F50EA3E0F50F22FB900355E04A
:1058B000F8A31279232274F7120C11EAFEEBFF12FF
:1058C0001519E9700AEEFAEFFB121525E96006EEEC
:1058D000FAEFFB80047AFE7BFF02512974EE120C72
:1058E000118A0A8B0B8C0C8D0D890E75080012190C
:1058F00039E979006003025A45AA0AAB0B1217472F
:10590000A90E12173B8A108B11AE10AF11EE4F602B
:10591000198E828F83A3A3A3A3A3E0640270559082
:1059200003BEE064027003025A43AA0AAB0B900361
:10593000591258AF122E9812152B8A108B11A810DD
:10594000A911E8497003025A4388828983A3A3A35B
:10595000A3A3E0A2E04003025A43750901A2E1506B
:105960004B7901AC0AAD0BAA0CAB0D12169FE97076
:1059700047025A438E828F83A3A3A3A3A3E06403A9
:1059800060258E828F83A3A3A3A3A3E06401600399
:10599000025A4379078E828F83A3A312649512174C
:1059A00071E96003025A4375090280108882898375
:1059B000A3A3A3A3A3D2E1F0EE4F603A8E828F831C
:1059C000A3A3A3A3A3A3E05418602B7508018E82A0
:1059D0008F83A3A3120F3C7510FE7511FF78101270
:1059E00011107900AC0AAD0BAA0CAB0D1217537451
:1059F00004121123804D7900AA0CAB0D1217478AAF
:105A0000108B11A810A911900372E0687003A3E035
:105A100069701490353FE493FCA90EAA0AAB0B12EF
:105A2000166F750801801CA909AC0AAD0BAA0CAB56
:105A30000D12169FE9700C750801A90EAA0AAB0B8E
:105A40001216F9A90880031211237F0A020E297485
:105A5000EB120C1174F01211888A0C8B0D8C088DCE
:105A6000097512069003FF125DEC601A90037F1215
:105A700073EF121A298A108B11EA451160088A8285
:105A80008B83A3E0606DE50C241DF50EE50D34005D
:105A9000F50F850E82125FDBF51488828983A3A33C
:105AA000A3E0FA88828983A3A3A3A3E0F9EA2400F0
:105AB000FEE439FFAA08AB091216FF850E82850F96
:105AC00083125DCEE029F50BE50AA2E550037512BD
:105AD0000E7487550A70177418550A6418600FE51C
